{
  "address": "0xbf083dEd513f32A144627fEa9782a4d3d5fefe28",
  "abi": [
    {
      "inputs": [
        {
          "internalType": "address",
          "name": "_owner",
          "type": "address"
        },
        {
          "internalType": "uint256",
          "name": "_creationFee",
          "type": "uint256"
        }
      ],
      "stateMutability": "nonpayable",
      "type": "constructor"
    },
    {
      "inputs": [],
      "name": "NothingToWithdraw",
      "type": "error"
    },
    {
      "anonymous": false,
      "inputs": [
        {
          "indexed": true,
          "internalType": "address",
          "name": "bookAddress",
          "type": "address"
        },
        {
          "indexed": false,
          "internalType": "string",
          "name": "coverIpfsCid",
          "type": "string"
        }
      ],
      "name": "BookCoverIpfsCidSet",
      "type": "event"
    },
    {
      "anonymous": false,
      "inputs": [
        {
          "indexed": true,
          "internalType": "address",
          "name": "bookAddress",
          "type": "address"
        },
        {
          "indexed": false,
          "internalType": "string",
          "name": "tokenName",
          "type": "string"
        },
        {
          "indexed": false,
          "internalType": "string",
          "name": "symbol",
          "type": "string"
        },
        {
          "indexed": false,
          "internalType": "string",
          "name": "baseURI",
          "type": "string"
        },
        {
          "indexed": false,
          "internalType": "string",
          "name": "bookIpfsCid",
          "type": "string"
        },
        {
          "indexed": false,
          "internalType": "string",
          "name": "coverIpfsCid",
          "type": "string"
        },
        {
          "indexed": false,
          "internalType": "address",
          "name": "creator",
          "type": "address"
        }
      ],
      "name": "BookCreated",
      "type": "event"
    },
    {
      "anonymous": false,
      "inputs": [
        {
          "indexed": true,
          "internalType": "address",
          "name": "bookAddress",
          "type": "address"
        },
        {
          "indexed": false,
          "internalType": "string",
          "name": "bookIpfsCid",
          "type": "string"
        }
      ],
      "name": "BookIpfsCidSet",
      "type": "event"
    },
    {
      "anonymous": false,
      "inputs": [
        {
          "indexed": true,
          "internalType": "address",
          "name": "bookAddress",
          "type": "address"
        },
        {
          "indexed": false,
          "internalType": "uint256",
          "name": "newPrice",
          "type": "uint256"
        }
      ],
      "name": "BookPriceUpdated",
      "type": "event"
    },
    {
      "anonymous": false,
      "inputs": [
        {
          "indexed": true,
          "internalType": "address",
          "name": "buyer",
          "type": "address"
        },
        {
          "indexed": true,
          "internalType": "address",
          "name": "bookAddress",
          "type": "address"
        },
        {
          "indexed": false,
          "internalType": "uint256",
          "name": "tokenId",
          "type": "uint256"
        }
      ],
      "name": "BookPurchased",
      "type": "event"
    },
    {
      "anonymous": false,
      "inputs": [
        {
          "indexed": false,
          "internalType": "uint256",
          "name": "newFee",
          "type": "uint256"
        }
      ],
      "name": "CreationFeeUpdated",
      "type": "event"
    },
    {
      "anonymous": false,
      "inputs": [
        {
          "indexed": true,
          "internalType": "address",
          "name": "bookAddress",
          "type": "address"
        },
        {
          "indexed": false,
          "internalType": "uint256",
          "name": "maxCopies",
          "type": "uint256"
        }
      ],
      "name": "MaxCopiesUpdated",
      "type": "event"
    },
    {
      "inputs": [
        {
          "internalType": "uint256",
          "name": "",
          "type": "uint256"
        }
      ],
      "name": "bookAddresses",
      "outputs": [
        {
          "internalType": "address",
          "name": "",
          "type": "address"
        }
      ],
      "stateMutability": "view",
      "type": "function"
    },
    {
      "inputs": [
        {
          "internalType": "address",
          "name": "",
          "type": "address"
        }
      ],
      "name": "books",
      "outputs": [
        {
          "internalType": "address",
          "name": "bookAddress",
          "type": "address"
        },
        {
          "internalType": "string",
          "name": "name",
          "type": "string"
        },
        {
          "internalType": "string",
          "name": "symbol",
          "type": "string"
        },
        {
          "internalType": "uint256",
          "name": "price",
          "type": "uint256"
        },
        {
          "internalType": "string",
          "name": "baseURI",
          "type": "string"
        },
        {
          "internalType": "string",
          "name": "bookIpfsCid",
          "type": "string"
        },
        {
          "internalType": "string",
          "name": "coverIpfsCid",
          "type": "string"
        },
        {
          "internalType": "address",
          "name": "creator",
          "type": "address"
        },
        {
          "internalType": "uint256",
          "name": "maxCopies",
          "type": "uint256"
        },
        {
          "internalType": "uint256",
          "name": "totalSupply",
          "type": "uint256"
        }
      ],
      "stateMutability": "view",
      "type": "function"
    },
    {
      "inputs": [
        {
          "internalType": "string",
          "name": "name",
          "type": "string"
        },
        {
          "internalType": "string",
          "name": "symbol",
          "type": "string"
        },
        {
          "internalType": "uint256",
          "name": "bookPrice",
          "type": "uint256"
        },
        {
          "internalType": "string",
          "name": "baseURI",
          "type": "string"
        },
        {
          "internalType": "string",
          "name": "bookIpfsCid",
          "type": "string"
        },
        {
          "internalType": "string",
          "name": "coverIpfsCid",
          "type": "string"
        }
      ],
      "name": "createBook",
      "outputs": [
        {
          "internalType": "address",
          "name": "",
          "type": "address"
        }
      ],
      "stateMutability": "nonpayable",
      "type": "function"
    },
    {
      "inputs": [],
      "name": "feeForCreation",
      "outputs": [
        {
          "internalType": "uint256",
          "name": "",
          "type": "uint256"
        }
      ],
      "stateMutability": "view",
      "type": "function"
    },
    {
      "inputs": [],
      "name": "feePercentageForPurchase",
      "outputs": [
        {
          "internalType": "uint256",
          "name": "",
          "type": "uint256"
        }
      ],
      "stateMutability": "view",
      "type": "function"
    },
    {
      "inputs": [],
      "name": "getAllBookAddresses",
      "outputs": [
        {
          "internalType": "address[]",
          "name": "",
          "type": "address[]"
        }
      ],
      "stateMutability": "view",
      "type": "function"
    },
    {
      "inputs": [
        {
          "internalType": "address",
          "name": "bookAddress",
          "type": "address"
        }
      ],
      "name": "getBookCoverIpfsCid",
      "outputs": [
        {
          "internalType": "string",
          "name": "",
          "type": "string"
        }
      ],
      "stateMutability": "view",
      "type": "function"
    },
    {
      "inputs": [
        {
          "internalType": "address",
          "name": "bookAddress",
          "type": "address"
        }
      ],
      "name": "getBookIpfsCid",
      "outputs": [
        {
          "internalType": "string",
          "name": "",
          "type": "string"
        }
      ],
      "stateMutability": "view",
      "type": "function"
    },
    {
      "inputs": [
        {
          "internalType": "address",
          "name": "bookAddress",
          "type": "address"
        }
      ],
      "name": "getBookPrice",
      "outputs": [
        {
          "internalType": "uint256",
          "name": "",
          "type": "uint256"
        }
      ],
      "stateMutability": "view",
      "type": "function"
    },
    {
      "inputs": [
        {
          "internalType": "address",
          "name": "",
          "type": "address"
        }
      ],
      "name": "minters",
      "outputs": [
        {
          "internalType": "uint256",
          "name": "minted",
          "type": "uint256"
        },
        {
          "internalType": "uint256",
          "name": "mintedAtBlock",
          "type": "uint256"
        },
        {
          "internalType": "bool",
          "name": "hasMintedBefore",
          "type": "bool"
        },
        {
          "internalType": "uint256",
          "name": "minter_AllTime_Minted",
          "type": "uint256"
        }
      ],
      "stateMutability": "view",
      "type": "function"
    },
    {
      "inputs": [],
      "name": "owner",
      "outputs": [
        {
          "internalType": "address",
          "name": "",
          "type": "address"
        }
      ],
      "stateMutability": "view",
      "type": "function"
    },
    {
      "inputs": [
        {
          "internalType": "address",
          "name": "bookAddress",
          "type": "address"
        },
        {
          "internalType": "uint256",
          "name": "amount",
          "type": "uint256"
        }
      ],
      "name": "purchaseBook",
      "outputs": [],
      "stateMutability": "nonpayable",
      "type": "function"
    },
    {
      "inputs": [
        {
          "internalType": "address",
          "name": "bookAddress",
          "type": "address"
        },
        {
          "internalType": "string",
          "name": "newIpfsCid",
          "type": "string"
        }
      ],
      "name": "setBookCoverIpfsCid",
      "outputs": [],
      "stateMutability": "nonpayable",
      "type": "function"
    },
    {
      "inputs": [
        {
          "internalType": "address",
          "name": "bookAddress",
          "type": "address"
        },
        {
          "internalType": "string",
          "name": "newIpfsCid",
          "type": "string"
        }
      ],
      "name": "setBookIpfsCid",
      "outputs": [],
      "stateMutability": "nonpayable",
      "type": "function"
    },
    {
      "inputs": [
        {
          "internalType": "address",
          "name": "bookAddress",
          "type": "address"
        },
        {
          "internalType": "uint256",
          "name": "newPrice",
          "type": "uint256"
        }
      ],
      "name": "setBookPrice",
      "outputs": [],
      "stateMutability": "nonpayable",
      "type": "function"
    },
    {
      "inputs": [
        {
          "internalType": "uint256",
          "name": "newFee",
          "type": "uint256"
        }
      ],
      "name": "setCreationFee",
      "outputs": [],
      "stateMutability": "nonpayable",
      "type": "function"
    },
    {
      "inputs": [
        {
          "internalType": "address",
          "name": "bookAddress",
          "type": "address"
        },
        {
          "internalType": "uint256",
          "name": "maxCopies",
          "type": "uint256"
        }
      ],
      "name": "setMaxCopies",
      "outputs": [],
      "stateMutability": "nonpayable",
      "type": "function"
    },
    {
      "inputs": [],
      "name": "usdcToken",
      "outputs": [
        {
          "internalType": "contract IERC20",
          "name": "",
          "type": "address"
        }
      ],
      "stateMutability": "view",
      "type": "function"
    },
    {
      "inputs": [
        {
          "internalType": "address",
          "name": "_beneficiary",
          "type": "address"
        },
        {
          "internalType": "address",
          "name": "_token",
          "type": "address"
        }
      ],
      "name": "withdrawToken",
      "outputs": [],
      "stateMutability": "nonpayable",
      "type": "function"
    }
  ],
  "transactionHash": "0x901cd60fc43061a22b85fc779b94e5b52fb5ed93de8921ff3ad02c5c77ce9d84",
  "args": [
    "0xEf353eC37ed86CF28cfb29925748B202B51110C6",
    0
  ],
  "numDeployments": 4,
  "solcInputHash": "f9a4d54626ebe79cb4d3b5037081ecb8",
  "bytecode": "0x608060405260016003553480156200001657600080fd5b506040516200537a3803806200537a833981016040819052620000399162000085565b6000805473c4bdc44885ca364962272e5fd026c05be9ad924a6001600160a01b031991821617909155600180549091166001600160a01b039390931692909217909155600455620000c1565b600080604083850312156200009957600080fd5b82516001600160a01b0381168114620000b157600080fd5b6020939093015192949293505050565b6152a980620000d16000396000f3fe60806040523480156200001157600080fd5b5060043610620001395760003560e01c80636b312bbd11620000bb5780638da5cb5b116200007a5780638da5cb5b14620002b8578063a637107c14620002cc578063b7d8622514620002e5578063f46eccc414620002fc578063f8392282146200036057600080fd5b80636b312bbd146200023a578063733f6dc0146200025157806374eb1e5f14620002685780637800a7ef14620002975780637e70277914620002a157600080fd5b806317409fe0116200010857806317409fe014620001b857806318bca11314620001cf5780633aeac4e114620001f55780633f776688146200020c5780634111f0ec146200022357600080fd5b806306e21956146200013e57806311eac855146200015b578063129495d41462000188578063136f083b14620001a1575b600080fd5b6200014860035481565b6040519081526020015b60405180910390f35b6000546200016f906001600160a01b031681565b6040516001600160a01b03909116815260200162000152565b6200019f62000199366004620023a0565b62000377565b005b6200019f620001b2366004620023a0565b62000a53565b6200019f620001c93660046200247a565b62000c11565b620001e6620001e0366004620024d0565b62000dcb565b6040516200015291906200253f565b6200019f6200020636600462002554565b62001165565b620001e66200021d366004620024d0565b6200128b565b6200016f6200023436600462002592565b62001625565b620001486200024b366004620024d0565b62001916565b6200019f62000262366004620023a0565b62001cb4565b6200027f62000279366004620024d0565b62001e00565b604051620001529a999897969594939291906200267c565b6200014860045481565b6200019f620002b23660046200247a565b62002133565b6001546200016f906001600160a01b031681565b620002d662002297565b60405162000152919062002726565b6200019f620002f636600462002775565b620022fb565b620003396200030d366004620024d0565b6002602081905260009182526040909120805460018201549282015460039092015490929160ff169084565b60408051948552602085019390935290151591830191909152606082015260800162000152565b6200016f6200037136600462002775565b6200234e565b6001600160a01b0380831660009081526006602090815260408083208151610140810190925280549094168152600184018054939491939192840191620003be906200278f565b80601f0160208091040260200160405190810160405280929190818152602001828054620003ec906200278f565b80156200043d5780601f1062000411576101008083540402835291602001916200043d565b820191906000526020600020905b8154815290600101906020018083116200041f57829003601f168201915b5050505050815260200160028201805462000458906200278f565b80601f016020809104026020016040519081016040528092919081815260200182805462000486906200278f565b8015620004d75780601f10620004ab57610100808354040283529160200191620004d7565b820191906000526020600020905b815481529060010190602001808311620004b957829003601f168201915b5050505050815260200160038201548152602001600482018054620004fc906200278f565b80601f01602080910402602001604051908101604052809291908181526020018280546200052a906200278f565b80156200057b5780601f106200054f576101008083540402835291602001916200057b565b820191906000526020600020905b8154815290600101906020018083116200055d57829003601f168201915b5050505050815260200160058201805462000596906200278f565b80601f0160208091040260200160405190810160405280929190818152602001828054620005c4906200278f565b8015620006155780601f10620005e95761010080835404028352916020019162000615565b820191906000526020600020905b815481529060010190602001808311620005f757829003601f168201915b5050505050815260200160068201805462000630906200278f565b80601f01602080910402602001604051908101604052809291908181526020018280546200065e906200278f565b8015620006af5780601f106200068357610100808354040283529160200191620006af565b820191906000526020600020905b8154815290600101906020018083116200069157829003601f168201915b505050918352505060078201546001600160a01b03908116602083015260088301546040830152600990920154606090910152815191925016620007105760405162461bcd60e51b81526004016200070790620027cb565b60405180910390fd5b606081015180620007595760405162461bcd60e51b8152602060048201526012602482015271109bdbdac81c1c9a58d9481b9bdd081cd95d60721b604482015260640162000707565b60006064600354836200076d91906200280e565b6200077991906200282e565b9050600062000789828462002851565b600080546040516323b872dd60e01b81523360048201523060248201526044810187905292935090916001600160a01b03909116906323b872dd906064016020604051808303816000875af1158015620007e7573d6000803e3d6000fd5b505050506040513d601f19601f820116820180604052508101906200080d919062002867565b905080620008555760405162461bcd60e51b81526020600482015260146024820152731554d110c81d1c985b9cd9995c8819985a5b195960621b604482015260640162000707565b60005460e086015160405163a9059cbb60e01b81526001600160a01b0391821660048201526024810185905291169063a9059cbb906044016020604051808303816000875af1158015620008ad573d6000803e3d6000fd5b505050506040513d601f19601f82011682018060405250810190620008d3919062002867565b50604051600162f5be1b60e01b0319815233600482015287906000906001600160a01b0383169063ff0a41e5906024016020604051808303816000875af115801562000923573d6000803e3d6000fd5b505050506040513d601f19601f820116820180604052508101906200094991906200288b565b61010088015160405163bd85b03960e01b815260006004820152919250906001600160a01b0384169063bd85b03990602401602060405180830381865afa15801562000999573d6000803e3d6000fd5b505050506040513d601f19601f82011682018060405250810190620009bf91906200288b565b111562000a085760405162461bcd60e51b815260206004820152601660248201527513585e1a5b5d5b4818dbdc1a595cc81c995858da195960521b604482015260640162000707565b6040518181526001600160a01b038a169033907f11d98acd9bb3b842882be6ca4685c16bbd2913b62cf728fa039a86cf8ed3c5089060200160405180910390a3505050505050505050565b6001600160a01b038083166000908152600660205260409020805490911662000a905760405162461bcd60e51b81526004016200070790620027cb565b6000839050806001600160a01b0316638da5cb5b6040518163ffffffff1660e01b8152600401602060405180830381865afa15801562000ad4573d6000803e3d6000fd5b505050506040513d601f19601f8201168201806040525081019062000afa9190620028a5565b6001600160a01b0316336001600160a01b03161462000b675760405162461bcd60e51b815260206004820152602260248201527f4f6e6c7920626f6f6b206f776e65722063616e20736574206d617820636f7069604482015261657360f01b606482015260840162000707565b6000831162000bc55760405162461bcd60e51b8152602060048201526024808201527f4d617820636f70696573206d7573742062652067726561746572207468616e206044820152637a65726f60e01b606482015260840162000707565b600882018390556040518381526001600160a01b038516907fbceefaf234f5bceec8f188fc72efc599c104bcb6dfbcefe8053998f063311a73906020015b60405180910390a250505050565b6001600160a01b038083166000908152600660205260409020805490911662000c4e5760405162461bcd60e51b81526004016200070790620027cb565b6000839050806001600160a01b0316638da5cb5b6040518163ffffffff1660e01b8152600401602060405180830381865afa15801562000c92573d6000803e3d6000fd5b505050506040513d601f19601f8201168201806040525081019062000cb89190620028a5565b6001600160a01b0316336001600160a01b03161462000d1a5760405162461bcd60e51b815260206004820181905260248201527f4f6e6c7920626f6f6b206f776e65722063616e20736574204950465320434944604482015260640162000707565b604051634e60c53160e11b81526001600160a01b03821690639cc18a629062000d4a9086903390600401620028c5565b600060405180830381600087803b15801562000d6557600080fd5b505af115801562000d7a573d6000803e3d6000fd5b50505060058301905062000d8f848262002944565b50836001600160a01b03167fed12fd7250feebdc6d04588df0094ba2a7cdd1510c4fa4dcb10548b0d388048d8460405162000c0391906200253f565b6001600160a01b038082166000908152600660209081526040808320815161014081019092528054909416815260018401805460609592938401919062000e12906200278f565b80601f016020809104026020016040519081016040528092919081815260200182805462000e40906200278f565b801562000e915780601f1062000e655761010080835404028352916020019162000e91565b820191906000526020600020905b81548152906001019060200180831162000e7357829003601f168201915b5050505050815260200160028201805462000eac906200278f565b80601f016020809104026020016040519081016040528092919081815260200182805462000eda906200278f565b801562000f2b5780601f1062000eff5761010080835404028352916020019162000f2b565b820191906000526020600020905b81548152906001019060200180831162000f0d57829003601f168201915b505050505081526020016003820154815260200160048201805462000f50906200278f565b80601f016020809104026020016040519081016040528092919081815260200182805462000f7e906200278f565b801562000fcf5780601f1062000fa35761010080835404028352916020019162000fcf565b820191906000526020600020905b81548152906001019060200180831162000fb157829003601f168201915b5050505050815260200160058201805462000fea906200278f565b80601f016020809104026020016040519081016040528092919081815260200182805462001018906200278f565b8015620010695780601f106200103d5761010080835404028352916020019162001069565b820191906000526020600020905b8154815290600101906020018083116200104b57829003601f168201915b5050505050815260200160068201805462001084906200278f565b80601f0160208091040260200160405190810160405280929190818152602001828054620010b2906200278f565b8015620011035780601f10620010d75761010080835404028352916020019162001103565b820191906000526020600020905b815481529060010190602001808311620010e557829003601f168201915b505050918352505060078201546001600160a01b039081166020830152600883015460408301526009909201546060909101528151919250166200115b5760405162461bcd60e51b81526004016200070790620027cb565b60a0015192915050565b6001546001600160a01b031633146200117d57600080fd5b6040516370a0823160e01b81523060048201526000906001600160a01b038316906370a0823190602401602060405180830381865afa158015620011c5573d6000803e3d6000fd5b505050506040513d601f19601f82011682018060405250810190620011eb91906200288b565b9050806000036200120f57604051630686827b60e51b815260040160405180910390fd5b60405163a9059cbb60e01b81526001600160a01b0384811660048301526024820183905283169063a9059cbb906044016020604051808303816000875af11580156200125f573d6000803e3d6000fd5b505050506040513d601f19601f8201168201806040525081019062001285919062002867565b50505050565b6001600160a01b0380821660009081526006602090815260408083208151610140810190925280549094168152600184018054606095929384019190620012d2906200278f565b80601f016020809104026020016040519081016040528092919081815260200182805462001300906200278f565b8015620013515780601f10620013255761010080835404028352916020019162001351565b820191906000526020600020905b8154815290600101906020018083116200133357829003601f168201915b505050505081526020016002820180546200136c906200278f565b80601f01602080910402602001604051908101604052809291908181526020018280546200139a906200278f565b8015620013eb5780601f10620013bf57610100808354040283529160200191620013eb565b820191906000526020600020905b815481529060010190602001808311620013cd57829003601f168201915b505050505081526020016003820154815260200160048201805462001410906200278f565b80601f01602080910402602001604051908101604052809291908181526020018280546200143e906200278f565b80156200148f5780601f1062001463576101008083540402835291602001916200148f565b820191906000526020600020905b8154815290600101906020018083116200147157829003601f168201915b50505050508152602001600582018054620014aa906200278f565b80601f0160208091040260200160405190810160405280929190818152602001828054620014d8906200278f565b8015620015295780601f10620014fd5761010080835404028352916020019162001529565b820191906000526020600020905b8154815290600101906020018083116200150b57829003601f168201915b5050505050815260200160068201805462001544906200278f565b80601f016020809104026020016040519081016040528092919081815260200182805462001572906200278f565b8015620015c35780601f106200159757610100808354040283529160200191620015c3565b820191906000526020600020905b815481529060010190602001808311620015a557829003601f168201915b505050918352505060078201546001600160a01b039081166020830152600883015460408301526009909201546060909101528151919250166200161b5760405162461bcd60e51b81526004016200070790620027cb565b60c0015192915050565b60008054600480546040516323b872dd60e01b8152339281019290925230602483015260448201526001600160a01b03909116906323b872dd906064016020604051808303816000875af115801562001682573d6000803e3d6000fd5b505050506040513d601f19601f82011682018060405250810190620016a8919062002867565b620017045760405162461bcd60e51b815260206004820152602560248201527f55534443207472616e7366657220666f72206372656174696f6e206665652066604482015264185a5b195960da1b606482015260840162000707565b60008787878733604051620017199062002379565b6200172995949392919062002a11565b604051809103906000f08015801562001746573d6000803e3d6000fd5b5060408051610140810182526001600160a01b0383811680835260208084018e81528486018e9052606085018d9052608085018c905260a085018b905260c085018a90523360e08601526103e8610100860152600061012086018190529283526006909152939020825181546001600160a01b03191692169190911781559151929350918291906001820190620017de908262002944565b5060408201516002820190620017f5908262002944565b50606082015160038201556080820151600482019062001816908262002944565b5060a082015160058201906200182d908262002944565b5060c0820151600682019062001844908262002944565b5060e08201516007820180546001600160a01b039283166001600160a01b031991821617909155610100840151600884015561012090930151600990920191909155600580546001810182556000919091527f036b6384b5eca791c62761152d0c79bb0604c104a5fb6f4eb0703f3154bb3db00180549185169190921681179091556040517f6194bb88dce0bc36657ecb009cce73e725a646310ad090862eeb79dc03a8fdda9062001902908c908c908b908b908b90339062002a71565b60405180910390a250509695505050505050565b6001600160a01b03808216600090815260066020908152604080832081516101408101909252805490941681526001840180549394859492939092908401919062001961906200278f565b80601f01602080910402602001604051908101604052809291908181526020018280546200198f906200278f565b8015620019e05780601f10620019b457610100808354040283529160200191620019e0565b820191906000526020600020905b815481529060010190602001808311620019c257829003601f168201915b50505050508152602001600282018054620019fb906200278f565b80601f016020809104026020016040519081016040528092919081815260200182805462001a29906200278f565b801562001a7a5780601f1062001a4e5761010080835404028352916020019162001a7a565b820191906000526020600020905b81548152906001019060200180831162001a5c57829003601f168201915b505050505081526020016003820154815260200160048201805462001a9f906200278f565b80601f016020809104026020016040519081016040528092919081815260200182805462001acd906200278f565b801562001b1e5780601f1062001af25761010080835404028352916020019162001b1e565b820191906000526020600020905b81548152906001019060200180831162001b0057829003601f168201915b5050505050815260200160058201805462001b39906200278f565b80601f016020809104026020016040519081016040528092919081815260200182805462001b67906200278f565b801562001bb85780601f1062001b8c5761010080835404028352916020019162001bb8565b820191906000526020600020905b81548152906001019060200180831162001b9a57829003601f168201915b5050505050815260200160068201805462001bd3906200278f565b80601f016020809104026020016040519081016040528092919081815260200182805462001c01906200278f565b801562001c525780601f1062001c265761010080835404028352916020019162001c52565b820191906000526020600020905b81548152906001019060200180831162001c3457829003601f168201915b505050918352505060078201546001600160a01b0390811660208301526008830154604083015260099092015460609091015281519192501662001caa5760405162461bcd60e51b81526004016200070790620027cb565b6060015192915050565b6001600160a01b038083166000908152600660205260409020805490911662001cf15760405162461bcd60e51b81526004016200070790620027cb565b6000839050806001600160a01b0316638da5cb5b6040518163ffffffff1660e01b8152600401602060405180830381865afa15801562001d35573d6000803e3d6000fd5b505050506040513d601f19601f8201168201806040525081019062001d5b9190620028a5565b6001600160a01b0316336001600160a01b03161462001dbd5760405162461bcd60e51b815260206004820152601d60248201527f4f6e6c7920626f6f6b206f776e65722063616e20736574207072696365000000604482015260640162000707565b600382018390556040518381526001600160a01b038516907f0c43b17a7398cbc1eab4ede8acf79d82901ae3bc63b93fbce5ac142ddebf89b09060200162000c03565b600660205260009081526040902080546001820180546001600160a01b03909216929162001e2e906200278f565b80601f016020809104026020016040519081016040528092919081815260200182805462001e5c906200278f565b801562001ead5780601f1062001e815761010080835404028352916020019162001ead565b820191906000526020600020905b81548152906001019060200180831162001e8f57829003601f168201915b50505050509080600201805462001ec4906200278f565b80601f016020809104026020016040519081016040528092919081815260200182805462001ef2906200278f565b801562001f435780601f1062001f175761010080835404028352916020019162001f43565b820191906000526020600020905b81548152906001019060200180831162001f2557829003601f168201915b50505050509080600301549080600401805462001f60906200278f565b80601f016020809104026020016040519081016040528092919081815260200182805462001f8e906200278f565b801562001fdf5780601f1062001fb35761010080835404028352916020019162001fdf565b820191906000526020600020905b81548152906001019060200180831162001fc157829003601f168201915b50505050509080600501805462001ff6906200278f565b80601f016020809104026020016040519081016040528092919081815260200182805462002024906200278f565b8015620020755780601f10620020495761010080835404028352916020019162002075565b820191906000526020600020905b8154815290600101906020018083116200205757829003601f168201915b5050505050908060060180546200208c906200278f565b80601f0160208091040260200160405190810160405280929190818152602001828054620020ba906200278f565b80156200210b5780601f10620020df576101008083540402835291602001916200210b565b820191906000526020600020905b815481529060010190602001808311620020ed57829003601f168201915b505050506007830154600884015460099094015492936001600160a01b03909116929091508a565b6001600160a01b0380831660009081526006602052604090208054909116620021705760405162461bcd60e51b81526004016200070790620027cb565b6000839050806001600160a01b0316638da5cb5b6040518163ffffffff1660e01b8152600401602060405180830381865afa158015620021b4573d6000803e3d6000fd5b505050506040513d601f19601f82011682018060405250810190620021da9190620028a5565b6001600160a01b0316336001600160a01b0316146200224b5760405162461bcd60e51b815260206004820152602660248201527f4f6e6c7920626f6f6b206f776e65722063616e2073657420636f7665722049506044820152651194c810d25160d21b606482015260840162000707565b600682016200225b848262002944565b50836001600160a01b03167f63d3981ff48b4ced41b66689cd56a390c7329fab4f6df685758215572a251f0d8460405162000c0391906200253f565b60606005805480602002602001604051908101604052809291908181526020018280548015620022f157602002820191906000526020600020905b81546001600160a01b03168152600190910190602001808311620022d2575b5050505050905090565b6001546001600160a01b031633146200231357600080fd5b60048190556040518181527f88a973fd5506071e0cf878b30898776c47d5250a7ee1e6ee0b36df3b03c7c16a9060200160405180910390a150565b600581815481106200235f57600080fd5b6000918252602090912001546001600160a01b0316905081565b61277b8062002af983390190565b6001600160a01b03811681146200239d57600080fd5b50565b60008060408385031215620023b457600080fd5b8235620023c18162002387565b946020939093013593505050565b634e487b7160e01b600052604160045260246000fd5b600082601f830112620023f757600080fd5b813567ffffffffffffffff80821115620024155762002415620023cf565b604051601f8301601f19908116603f01168101908282118183101715620024405762002440620023cf565b816040528381528660208588010111156200245a57600080fd5b836020870160208301376000602085830101528094505050505092915050565b600080604083850312156200248e57600080fd5b82356200249b8162002387565b9150602083013567ffffffffffffffff811115620024b857600080fd5b620024c685828601620023e5565b9150509250929050565b600060208284031215620024e357600080fd5b8135620024f08162002387565b9392505050565b6000815180845260005b818110156200251f5760208185018101518683018201520162002501565b506000602082860101526020601f19601f83011685010191505092915050565b602081526000620024f06020830184620024f7565b600080604083850312156200256857600080fd5b8235620025758162002387565b91506020830135620025878162002387565b809150509250929050565b60008060008060008060c08789031215620025ac57600080fd5b863567ffffffffffffffff80821115620025c557600080fd5b620025d38a838b01620023e5565b97506020890135915080821115620025ea57600080fd5b620025f88a838b01620023e5565b96506040890135955060608901359150808211156200261657600080fd5b620026248a838b01620023e5565b945060808901359150808211156200263b57600080fd5b620026498a838b01620023e5565b935060a08901359150808211156200266057600080fd5b506200266f89828a01620023e5565b9150509295509295509295565b6001600160a01b038b8116825261014060208301819052600091620026a48483018e620024f7565b91508382036040850152620026ba828d620024f7565b91508a60608501528382036080850152620026d6828b620024f7565b915083820360a0850152620026ec828a620024f7565b915083820360c0850152620027028289620024f7565b961660e0840152505061010081019290925261012090910152979650505050505050565b6020808252825182820181905260009190848201906040850190845b81811015620027695783516001600160a01b03168352928401929184019160010162002742565b50909695505050505050565b6000602082840312156200278857600080fd5b5035919050565b600181811c90821680620027a457607f821691505b602082108103620027c557634e487b7160e01b600052602260045260246000fd5b50919050565b602080825260139082015272109bdbdac8191bd95cc81b9bdd08195e1a5cdd606a1b604082015260600190565b634e487b7160e01b600052601160045260246000fd5b8082028115828204841417620028285762002828620027f8565b92915050565b6000826200284c57634e487b7160e01b600052601260045260246000fd5b500490565b81810381811115620028285762002828620027f8565b6000602082840312156200287a57600080fd5b81518015158114620024f057600080fd5b6000602082840312156200289e57600080fd5b5051919050565b600060208284031215620028b857600080fd5b8151620024f08162002387565b604081526000620028da6040830185620024f7565b905060018060a01b03831660208301529392505050565b601f8211156200293f57600081815260208120601f850160051c810160208610156200291a5750805b601f850160051c820191505b818110156200293b5782815560010162002926565b5050505b505050565b815167ffffffffffffffff811115620029615762002961620023cf565b62002979816200297284546200278f565b84620028f1565b602080601f831160018114620029b15760008415620029985750858301515b600019600386901b1c1916600185901b1785556200293b565b600085815260208120601f198616915b82811015620029e257888601518255948401946001909101908401620029c1565b508582101562002a015787850151600019600388901b60f8161c191681555b5050505050600190811b01905550565b60a08152600062002a2660a0830188620024f7565b828103602084015262002a3a8188620024f7565b9050856040840152828103606084015262002a568186620024f7565b91505060018060a01b03831660808301529695505050505050565b60c08152600062002a8660c0830189620024f7565b828103602084015262002a9a8189620024f7565b9050828103604084015262002ab08188620024f7565b9050828103606084015262002ac68187620024f7565b9050828103608084015262002adc8186620024f7565b91505060018060a01b03831660a083015297965050505050505056fe608060405260016009553480156200001657600080fd5b506040516200277b3803806200277b83398101604081905262000039916200029b565b84846000620000498382620003e9565b506001620000588282620003e9565b505050620000756200006f6200009f60201b60201c565b620000a3565b600e839055600f620000888382620003e9565b506200009481620000f5565b5050505050620004b5565b3390565b600780546001600160a01b038381166001600160a01b0319831681179093556040519116919082907f8be0079c531659141344cd1fd0a4f28419497f9722a3daafe3b4186f6b6457e090600090a35050565b620000ff62000178565b6001600160a01b0381166200016a5760405162461bcd60e51b815260206004820152602660248201527f4f776e61626c653a206e6577206f776e657220697320746865207a65726f206160448201526564647265737360d01b60648201526084015b60405180910390fd5b6200017581620000a3565b50565b6007546001600160a01b03163314620001d45760405162461bcd60e51b815260206004820181905260248201527f4f776e61626c653a2063616c6c6572206973206e6f7420746865206f776e6572604482015260640162000161565b565b634e487b7160e01b600052604160045260246000fd5b600082601f830112620001fe57600080fd5b81516001600160401b03808211156200021b576200021b620001d6565b604051601f8301601f19908116603f01168101908282118183101715620002465762000246620001d6565b816040528381526020925086838588010111156200026357600080fd5b600091505b8382101562000287578582018301518183018401529082019062000268565b600093810190920192909252949350505050565b600080600080600060a08688031215620002b457600080fd5b85516001600160401b0380821115620002cc57600080fd5b620002da89838a01620001ec565b96506020880151915080821115620002f157600080fd5b620002ff89838a01620001ec565b95506040880151945060608801519150808211156200031d57600080fd5b506200032c88828901620001ec565b608088015190935090506001600160a01b03811681146200034c57600080fd5b809150509295509295909350565b600181811c908216806200036f57607f821691505b6020821081036200039057634e487b7160e01b600052602260045260246000fd5b50919050565b601f821115620003e457600081815260208120601f850160051c81016020861015620003bf5750805b601f850160051c820191505b81811015620003e057828155600101620003cb565b5050505b505050565b81516001600160401b03811115620004055762000405620001d6565b6200041d816200041684546200035a565b8462000396565b602080601f8311600181146200045557600084156200043c5750858301515b600019600386901b1c1916600185901b178555620003e0565b600085815260208120601f198616915b82811015620004865788860151825594840194600190910190840162000465565b5085821015620004a55787850151600019600388901b60f8161c191681555b5050505050600190811b01905550565b6122b680620004c56000396000f3fe6080604052600436106101c25760003560e01c80637800a7ef116100f7578063bd85b03911610095578063f2fde38b11610064578063f2fde38b14610508578063f46eccc414610528578063f839228214610596578063ff0a41e5146105b657600080fd5b8063bd85b03914610493578063c87b56dd146104b3578063e7c711f4146104d3578063e985e9c5146104e857600080fd5b806395d89b41116100d157806395d89b411461041e5780639cc18a6214610433578063a22cb46514610453578063b88d4fde1461047357600080fd5b80637800a7ef146103ca5780637e702779146103e05780638da5cb5b1461040057600080fd5b806342842e0e116101645780636e9164f41161013e5780636e9164f41461034957806370a082311461035f578063715018a61461037f57806374eb1e5f1461039457600080fd5b806342842e0e146102e957806358c88ce3146103095780636352211e1461032957600080fd5b8063081812fc116101a0578063081812fc14610242578063095ea7b31461027a57806320cacfa01461029c57806323b872dd146102c957600080fd5b806301ffc9a7146101c757806306e21956146101fc57806306fdde0314610220575b600080fd5b3480156101d357600080fd5b506101e76101e2366004611b64565b6105c9565b60405190151581526020015b60405180910390f35b34801561020857600080fd5b5061021260095481565b6040519081526020016101f3565b34801561022c57600080fd5b506102356105f4565b6040516101f39190611bd1565b34801561024e57600080fd5b5061026261025d366004611be4565b610686565b6040516001600160a01b0390911681526020016101f3565b34801561028657600080fd5b5061029a610295366004611c12565b6106ad565b005b3480156102a857600080fd5b506102126102b7366004611be4565b60126020526000908152604090205481565b3480156102d557600080fd5b5061029a6102e4366004611c3e565b6107c7565b3480156102f557600080fd5b5061029a610304366004611c3e565b6107f8565b34801561031557600080fd5b5061029a610324366004611c7f565b610813565b34801561033557600080fd5b50610262610344366004611be4565b610889565b34801561035557600080fd5b50610212600e5481565b34801561036b57600080fd5b5061021261037a366004611ca1565b6108e9565b34801561038b57600080fd5b5061029a61096f565b3480156103a057600080fd5b506103b46103af366004611ca1565b610983565b6040516101f39a99989796959493929190611cbe565b3480156103d657600080fd5b50610212600a5481565b3480156103ec57600080fd5b5061029a6103fb366004611e0a565b610c8e565b34801561040c57600080fd5b506007546001600160a01b0316610262565b34801561042a57600080fd5b50610235610e1a565b34801561043f57600080fd5b5061029a61044e366004611e5a565b610e29565b34801561045f57600080fd5b5061029a61046e366004611eac565b610ee7565b34801561047f57600080fd5b5061029a61048e366004611edf565b610ef6565b34801561049f57600080fd5b506102126104ae366004611be4565b610f2e565b3480156104bf57600080fd5b506102356104ce366004611be4565b610f44565b3480156104df57600080fd5b50610235611047565b3480156104f457600080fd5b506101e7610503366004611f5f565b611056565b34801561051457600080fd5b5061029a610523366004611ca1565b611084565b34801561053457600080fd5b50610570610543366004611ca1565b60086020526000908152604090208054600182015460028301546003909301549192909160ff9091169084565b6040805194855260208501939093529015159183019190915260608201526080016101f3565b3480156105a257600080fd5b506102626105b1366004611be4565b6110fd565b6102126105c4366004611ca1565b611127565b60006001600160e01b03198216632483248360e11b14806105ee57506105ee82611208565b92915050565b60606000805461060390611f8d565b80601f016020809104026020016040519081016040528092919081815260200182805461062f90611f8d565b801561067c5780601f106106515761010080835404028352916020019161067c565b820191906000526020600020905b81548152906001019060200180831161065f57829003601f168201915b5050505050905090565b600061069182611258565b506000908152600460205260409020546001600160a01b031690565b60006106b882610889565b9050806001600160a01b0316836001600160a01b03160361072a5760405162461bcd60e51b815260206004820152602160248201527f4552433732313a20617070726f76616c20746f2063757272656e74206f776e656044820152603960f91b60648201526084015b60405180910390fd5b336001600160a01b038216148061074657506107468133611056565b6107b85760405162461bcd60e51b815260206004820152603d60248201527f4552433732313a20617070726f76652063616c6c6572206973206e6f7420746f60448201527f6b656e206f776e6572206f7220617070726f76656420666f7220616c6c0000006064820152608401610721565b6107c283836112b7565b505050565b6107d13382611325565b6107ed5760405162461bcd60e51b815260040161072190611fc7565b6107c2838383611383565b6107c283838360405180602001604052806000815250610ef6565b61081b6114e7565b600081116108775760405162461bcd60e51b8152602060048201526024808201527f4d617820636f70696573206d7573742062652067726561746572207468616e206044820152637a65726f60e01b6064820152608401610721565b60009182526012602052604090912055565b6000818152600260205260408120546001600160a01b0316806105ee5760405162461bcd60e51b8152602060048201526018602482015277115490cdcc8c4e881a5b9d985b1a59081d1bdad95b88125160421b6044820152606401610721565b60006001600160a01b0382166109535760405162461bcd60e51b815260206004820152602960248201527f4552433732313a2061646472657373207a65726f206973206e6f7420612076616044820152683634b21037bbb732b960b91b6064820152608401610721565b506001600160a01b031660009081526003602052604090205490565b6109776114e7565b6109816000611541565b565b600c60205260009081526040902080546001820180546001600160a01b0390921692916109af90611f8d565b80601f01602080910402602001604051908101604052809291908181526020018280546109db90611f8d565b8015610a285780601f106109fd57610100808354040283529160200191610a28565b820191906000526020600020905b815481529060010190602001808311610a0b57829003601f168201915b505050505090806002018054610a3d90611f8d565b80601f0160208091040260200160405190810160405280929190818152602001828054610a6990611f8d565b8015610ab65780601f10610a8b57610100808354040283529160200191610ab6565b820191906000526020600020905b815481529060010190602001808311610a9957829003601f168201915b505050505090806003015490806004018054610ad190611f8d565b80601f0160208091040260200160405190810160405280929190818152602001828054610afd90611f8d565b8015610b4a5780601f10610b1f57610100808354040283529160200191610b4a565b820191906000526020600020905b815481529060010190602001808311610b2d57829003601f168201915b505050505090806005018054610b5f90611f8d565b80601f0160208091040260200160405190810160405280929190818152602001828054610b8b90611f8d565b8015610bd85780601f10610bad57610100808354040283529160200191610bd8565b820191906000526020600020905b815481529060010190602001808311610bbb57829003601f168201915b505050505090806006018054610bed90611f8d565b80601f0160208091040260200160405190810160405280929190818152602001828054610c1990611f8d565b8015610c665780601f10610c3b57610100808354040283529160200191610c66565b820191906000526020600020905b815481529060010190602001808311610c4957829003601f168201915b505050506007830154600884015460099094015492936001600160a01b03909116929091508a565b6001600160a01b038083166000908152600c602052604090208054909116610cee5760405162461bcd60e51b8152602060048201526013602482015272109bdbdac8191bd95cc81b9bdd08195e1a5cdd606a1b6044820152606401610721565b6000839050806001600160a01b0316638da5cb5b6040518163ffffffff1660e01b8152600401602060405180830381865afa158015610d31573d6000803e3d6000fd5b505050506040513d601f19601f82011682018060405250810190610d559190612014565b6001600160a01b0316336001600160a01b031614610dc45760405162461bcd60e51b815260206004820152602660248201527f4f6e6c7920626f6f6b206f776e65722063616e2073657420636f7665722049506044820152651194c810d25160d21b6064820152608401610721565b60068201610dd2848261207f565b50836001600160a01b03167f63d3981ff48b4ced41b66689cd56a390c7329fab4f6df685758215572a251f0d84604051610e0c9190611bd1565b60405180910390a250505050565b60606001805461060390611f8d565b6007546001600160a01b03828116911614610e765760405162461bcd60e51b815260206004820152600d60248201526c2737ba103a34329037bbb732b960991b6044820152606401610721565b60115460ff1615610ec95760405162461bcd60e51b815260206004820181905260248201527f626f6f6b497066734369642068617320616c7265616479206265656e207365746044820152606401610721565b6010610ed5838261207f565b50506011805460ff1916600117905550565b610ef2338383611593565b5050565b610f003383611325565b610f1c5760405162461bcd60e51b815260040161072190611fc7565b610f2884848484611661565b50505050565b600081610f3a600d5490565b6105ee919061213f565b6060610f4f82611258565b60008281526006602052604081208054610f6890611f8d565b80601f0160208091040260200160405190810160405280929190818152602001828054610f9490611f8d565b8015610fe15780601f10610fb657610100808354040283529160200191610fe1565b820191906000526020600020905b815481529060010190602001808311610fc457829003601f168201915b505050505090506000610ff2611694565b90508051600003611004575092915050565b81511561103657808260405160200161101e929190612160565b60405160208183030381529060405292505050919050565b61103f846116a3565b949350505050565b60606010805461060390611f8d565b6001600160a01b03918216600090815260056020908152604080832093909416825291909152205460ff1690565b61108c6114e7565b6001600160a01b0381166110f15760405162461bcd60e51b815260206004820152602660248201527f4f776e61626c653a206e6577206f776e657220697320746865207a65726f206160448201526564647265737360d01b6064820152608401610721565b6110fa81611541565b50565b600b818154811061110d57600080fd5b6000918252602090912001546001600160a01b0316905081565b6000600e54341461116c5760405162461bcd60e51b815260206004820152600f60248201526e496e636f727265637420707269636560881b6044820152606401610721565b6000611177600d5490565b60008181526012602052604090205490915061119282610f2e565b106111f05760405162461bcd60e51b815260206004820152602860248201527f4d6178696d756d20636f70696573207265616368656420666f722074686973206044820152671d1bdad95b88125160c21b6064820152608401610721565b6111fe600d80546001019055565b6105ee838261170a565b60006001600160e01b031982166380ac58cd60e01b148061123957506001600160e01b03198216635b5e139f60e01b145b806105ee57506301ffc9a760e01b6001600160e01b03198316146105ee565b6000818152600260205260409020546001600160a01b03166110fa5760405162461bcd60e51b8152602060048201526018602482015277115490cdcc8c4e881a5b9d985b1a59081d1bdad95b88125160421b6044820152606401610721565b600081815260046020526040902080546001600160a01b0319166001600160a01b03841690811790915581906112ec82610889565b6001600160a01b03167f8c5be1e5ebec7d5bd14f71427d1e84f3dd0314c0f7b2291e5b200ac8c7c3b92560405160405180910390a45050565b60008061133183610889565b9050806001600160a01b0316846001600160a01b0316148061135857506113588185611056565b8061103f5750836001600160a01b031661137184610686565b6001600160a01b031614949350505050565b826001600160a01b031661139682610889565b6001600160a01b0316146113bc5760405162461bcd60e51b81526004016107219061218f565b6001600160a01b03821661141e5760405162461bcd60e51b8152602060048201526024808201527f4552433732313a207472616e7366657220746f20746865207a65726f206164646044820152637265737360e01b6064820152608401610721565b826001600160a01b031661143182610889565b6001600160a01b0316146114575760405162461bcd60e51b81526004016107219061218f565b600081815260046020908152604080832080546001600160a01b03199081169091556001600160a01b0387811680865260038552838620805460001901905590871680865283862080546001019055868652600290945282852080549092168417909155905184937fddf252ad1be2c89b69c2b068fc378daa952ba7f163c4a11628f55a4df523b3ef91a4505050565b6007546001600160a01b031633146109815760405162461bcd60e51b815260206004820181905260248201527f4f776e61626c653a2063616c6c6572206973206e6f7420746865206f776e65726044820152606401610721565b600780546001600160a01b038381166001600160a01b0319831681179093556040519116919082907f8be0079c531659141344cd1fd0a4f28419497f9722a3daafe3b4186f6b6457e090600090a35050565b816001600160a01b0316836001600160a01b0316036115f45760405162461bcd60e51b815260206004820152601960248201527f4552433732313a20617070726f766520746f2063616c6c6572000000000000006044820152606401610721565b6001600160a01b03838116600081815260056020908152604080832094871680845294825291829020805460ff191686151590811790915591519182527f17307eab39ab6107e8899845ad3d59bd9653f200f220920489ca2b5937696c31910160405180910390a3505050565b61166c848484611383565b61167884848484611724565b610f285760405162461bcd60e51b8152600401610721906121d4565b6060600f805461060390611f8d565b60606116ae82611258565b60006116b8611694565b905060008151116116d85760405180602001604052806000815250611703565b806116e284611825565b6040516020016116f3929190612160565b6040516020818303038152906040525b9392505050565b610ef28282604051806020016040528060008152506118b8565b60006001600160a01b0384163b1561181a57604051630a85bd0160e11b81526001600160a01b0385169063150b7a0290611768903390899088908890600401612226565b6020604051808303816000875af19250505080156117a3575060408051601f3d908101601f191682019092526117a091810190612263565b60015b611800573d8080156117d1576040519150601f19603f3d011682016040523d82523d6000602084013e6117d6565b606091505b5080516000036117f85760405162461bcd60e51b8152600401610721906121d4565b805181602001fd5b6001600160e01b031916630a85bd0160e11b14905061103f565b506001949350505050565b60606000611832836118eb565b600101905060008167ffffffffffffffff81111561185257611852611d5e565b6040519080825280601f01601f19166020018201604052801561187c576020820181803683370190505b5090508181016020015b600019016f181899199a1a9b1b9c1cb0b131b232b360811b600a86061a8153600a850494508461188657509392505050565b6118c283836119c3565b6118cf6000848484611724565b6107c25760405162461bcd60e51b8152600401610721906121d4565b60008072184f03e93ff9f4daa797ed6e38ed64bf6a1f0160401b831061192a5772184f03e93ff9f4daa797ed6e38ed64bf6a1f0160401b830492506040015b6d04ee2d6d415b85acef81000000008310611956576d04ee2d6d415b85acef8100000000830492506020015b662386f26fc10000831061197457662386f26fc10000830492506010015b6305f5e100831061198c576305f5e100830492506008015b61271083106119a057612710830492506004015b606483106119b2576064830492506002015b600a83106105ee5760010192915050565b6001600160a01b038216611a195760405162461bcd60e51b815260206004820181905260248201527f4552433732313a206d696e7420746f20746865207a65726f20616464726573736044820152606401610721565b6000818152600260205260409020546001600160a01b031615611a7e5760405162461bcd60e51b815260206004820152601c60248201527f4552433732313a20746f6b656e20616c7265616479206d696e746564000000006044820152606401610721565b6000818152600260205260409020546001600160a01b031615611ae35760405162461bcd60e51b815260206004820152601c60248201527f4552433732313a20746f6b656e20616c7265616479206d696e746564000000006044820152606401610721565b6001600160a01b038216600081815260036020908152604080832080546001019055848352600290915280822080546001600160a01b0319168417905551839291907fddf252ad1be2c89b69c2b068fc378daa952ba7f163c4a11628f55a4df523b3ef908290a45050565b6001600160e01b0319811681146110fa57600080fd5b600060208284031215611b7657600080fd5b813561170381611b4e565b60005b83811015611b9c578181015183820152602001611b84565b50506000910152565b60008151808452611bbd816020860160208601611b81565b601f01601f19169290920160200192915050565b6020815260006117036020830184611ba5565b600060208284031215611bf657600080fd5b5035919050565b6001600160a01b03811681146110fa57600080fd5b60008060408385031215611c2557600080fd5b8235611c3081611bfd565b946020939093013593505050565b600080600060608486031215611c5357600080fd5b8335611c5e81611bfd565b92506020840135611c6e81611bfd565b929592945050506040919091013590565b60008060408385031215611c9257600080fd5b50508035926020909101359150565b600060208284031215611cb357600080fd5b813561170381611bfd565b6001600160a01b038b8116825261014060208301819052600091611ce48483018e611ba5565b91508382036040850152611cf8828d611ba5565b91508a60608501528382036080850152611d12828b611ba5565b915083820360a0850152611d26828a611ba5565b915083820360c0850152611d3a8289611ba5565b961660e0840152505061010081019290925261012090910152979650505050505050565b634e487b7160e01b600052604160045260246000fd5b600067ffffffffffffffff80841115611d8f57611d8f611d5e565b604051601f8501601f19908116603f01168101908282118183101715611db757611db7611d5e565b81604052809350858152868686011115611dd057600080fd5b858560208301376000602087830101525050509392505050565b600082601f830112611dfb57600080fd5b61170383833560208501611d74565b60008060408385031215611e1d57600080fd5b8235611e2881611bfd565b9150602083013567ffffffffffffffff811115611e4457600080fd5b611e5085828601611dea565b9150509250929050565b60008060408385031215611e6d57600080fd5b823567ffffffffffffffff811115611e8457600080fd5b611e9085828601611dea565b9250506020830135611ea181611bfd565b809150509250929050565b60008060408385031215611ebf57600080fd5b8235611eca81611bfd565b915060208301358015158114611ea157600080fd5b60008060008060808587031215611ef557600080fd5b8435611f0081611bfd565b93506020850135611f1081611bfd565b925060408501359150606085013567ffffffffffffffff811115611f3357600080fd5b8501601f81018713611f4457600080fd5b611f5387823560208401611d74565b91505092959194509250565b60008060408385031215611f7257600080fd5b8235611f7d81611bfd565b91506020830135611ea181611bfd565b600181811c90821680611fa157607f821691505b602082108103611fc157634e487b7160e01b600052602260045260246000fd5b50919050565b6020808252602d908201527f4552433732313a2063616c6c6572206973206e6f7420746f6b656e206f776e6560408201526c1c881bdc88185c1c1c9bdd9959609a1b606082015260800190565b60006020828403121561202657600080fd5b815161170381611bfd565b601f8211156107c257600081815260208120601f850160051c810160208610156120585750805b601f850160051c820191505b8181101561207757828155600101612064565b505050505050565b815167ffffffffffffffff81111561209957612099611d5e565b6120ad816120a78454611f8d565b84612031565b602080601f8311600181146120e257600084156120ca5750858301515b600019600386901b1c1916600185901b178555612077565b600085815260208120601f198616915b82811015612111578886015182559484019460019091019084016120f2565b508582101561212f5787850151600019600388901b60f8161c191681555b5050505050600190811b01905550565b818103818111156105ee57634e487b7160e01b600052601160045260246000fd5b60008351612172818460208801611b81565b835190830190612186818360208801611b81565b01949350505050565b60208082526025908201527f4552433732313a207472616e736665722066726f6d20696e636f72726563742060408201526437bbb732b960d91b606082015260800190565b60208082526032908201527f4552433732313a207472616e7366657220746f206e6f6e20455243373231526560408201527131b2b4bb32b91034b6b83632b6b2b73a32b960711b606082015260800190565b6001600160a01b038581168252841660208201526040810183905260806060820181905260009061225990830184611ba5565b9695505050505050565b60006020828403121561227557600080fd5b815161170381611b4e56fea26469706673582212208281bd38e0e762eb741d72c40418696bd20bee67364e3afcea9aeee5e10234b464736f6c63430008140033a2646970667358221220ff37f8fb2af9df31a4575f0b7de15285cb660e14d3c40f052cf1b0a97a7856b164736f6c63430008140033",
  "devdoc": {
    "kind": "dev",
    "methods": {},
    "version": 1
  },
  "userdoc": {
    "kind": "user",
    "methods": {},
    "version": 1
  },
  "storageLayout": {
    "storage": [
      {
        "astId": 3504,
        "contract": "contracts/BookFactory.sol:BookFactory",
        "label": "usdcToken",
        "offset": 0,
        "slot": "0",
        "type": "t_contract(IERC20)218"
      },
      {
        "astId": 3506,
        "contract": "contracts/BookFactory.sol:BookFactory",
        "label": "owner",
        "offset": 0,
        "slot": "1",
        "type": "t_address"
      },
      {
        "astId": 3511,
        "contract": "contracts/BookFactory.sol:BookFactory",
        "label": "minters",
        "offset": 0,
        "slot": "2",
        "type": "t_mapping(t_address,t_struct(Minter)3501_storage)"
      },
      {
        "astId": 3514,
        "contract": "contracts/BookFactory.sol:BookFactory",
        "label": "feePercentageForPurchase",
        "offset": 0,
        "slot": "3",
        "type": "t_uint256"
      },
      {
        "astId": 3516,
        "contract": "contracts/BookFactory.sol:BookFactory",
        "label": "feeForCreation",
        "offset": 0,
        "slot": "4",
        "type": "t_uint256"
      },
      {
        "astId": 3519,
        "contract": "contracts/BookFactory.sol:BookFactory",
        "label": "bookAddresses",
        "offset": 0,
        "slot": "5",
        "type": "t_array(t_address)dyn_storage"
      },
      {
        "astId": 3524,
        "contract": "contracts/BookFactory.sol:BookFactory",
        "label": "books",
        "offset": 0,
        "slot": "6",
        "type": "t_mapping(t_address,t_struct(BookInfo)3492_storage)"
      }
    ],
    "types": {
      "t_address": {
        "encoding": "inplace",
        "label": "address",
        "numberOfBytes": "20"
      },
      "t_array(t_address)dyn_storage": {
        "base": "t_address",
        "encoding": "dynamic_array",
        "label": "address[]",
        "numberOfBytes": "32"
      },
      "t_bool": {
        "encoding": "inplace",
        "label": "bool",
        "numberOfBytes": "1"
      },
      "t_contract(IERC20)218": {
        "encoding": "inplace",
        "label": "contract IERC20",
        "numberOfBytes": "20"
      },
      "t_mapping(t_address,t_struct(BookInfo)3492_storage)": {
        "encoding": "mapping",
        "key": "t_address",
        "label": "mapping(address => struct BookFactory.BookInfo)",
        "numberOfBytes": "32",
        "value": "t_struct(BookInfo)3492_storage"
      },
      "t_mapping(t_address,t_struct(Minter)3501_storage)": {
        "encoding": "mapping",
        "key": "t_address",
        "label": "mapping(address => struct BookFactory.Minter)",
        "numberOfBytes": "32",
        "value": "t_struct(Minter)3501_storage"
      },
      "t_string_storage": {
        "encoding": "bytes",
        "label": "string",
        "numberOfBytes": "32"
      },
      "t_struct(BookInfo)3492_storage": {
        "encoding": "inplace",
        "label": "struct BookFactory.BookInfo",
        "members": [
          {
            "astId": 3473,
            "contract": "contracts/BookFactory.sol:BookFactory",
            "label": "bookAddress",
            "offset": 0,
            "slot": "0",
            "type": "t_address"
          },
          {
            "astId": 3475,
            "contract": "contracts/BookFactory.sol:BookFactory",
            "label": "name",
            "offset": 0,
            "slot": "1",
            "type": "t_string_storage"
          },
          {
            "astId": 3477,
            "contract": "contracts/BookFactory.sol:BookFactory",
            "label": "symbol",
            "offset": 0,
            "slot": "2",
            "type": "t_string_storage"
          },
          {
            "astId": 3479,
            "contract": "contracts/BookFactory.sol:BookFactory",
            "label": "price",
            "offset": 0,
            "slot": "3",
            "type": "t_uint256"
          },
          {
            "astId": 3481,
            "contract": "contracts/BookFactory.sol:BookFactory",
            "label": "baseURI",
            "offset": 0,
            "slot": "4",
            "type": "t_string_storage"
          },
          {
            "astId": 3483,
            "contract": "contracts/BookFactory.sol:BookFactory",
            "label": "bookIpfsCid",
            "offset": 0,
            "slot": "5",
            "type": "t_string_storage"
          },
          {
            "astId": 3485,
            "contract": "contracts/BookFactory.sol:BookFactory",
            "label": "coverIpfsCid",
            "offset": 0,
            "slot": "6",
            "type": "t_string_storage"
          },
          {
            "astId": 3487,
            "contract": "contracts/BookFactory.sol:BookFactory",
            "label": "creator",
            "offset": 0,
            "slot": "7",
            "type": "t_address"
          },
          {
            "astId": 3489,
            "contract": "contracts/BookFactory.sol:BookFactory",
            "label": "maxCopies",
            "offset": 0,
            "slot": "8",
            "type": "t_uint256"
          },
          {
            "astId": 3491,
            "contract": "contracts/BookFactory.sol:BookFactory",
            "label": "totalSupply",
            "offset": 0,
            "slot": "9",
            "type": "t_uint256"
          }
        ],
        "numberOfBytes": "320"
      },
      "t_struct(Minter)3501_storage": {
        "encoding": "inplace",
        "label": "struct BookFactory.Minter",
        "members": [
          {
            "astId": 3494,
            "contract": "contracts/BookFactory.sol:BookFactory",
            "label": "minted",
            "offset": 0,
            "slot": "0",
            "type": "t_uint256"
          },
          {
            "astId": 3496,
            "contract": "contracts/BookFactory.sol:BookFactory",
            "label": "mintedAtBlock",
            "offset": 0,
            "slot": "1",
            "type": "t_uint256"
          },
          {
            "astId": 3498,
            "contract": "contracts/BookFactory.sol:BookFactory",
            "label": "hasMintedBefore",
            "offset": 0,
            "slot": "2",
            "type": "t_bool"
          },
          {
            "astId": 3500,
            "contract": "contracts/BookFactory.sol:BookFactory",
            "label": "minter_AllTime_Minted",
            "offset": 0,
            "slot": "3",
            "type": "t_uint256"
          }
        ],
        "numberOfBytes": "128"
      },
      "t_uint256": {
        "encoding": "inplace",
        "label": "uint256",
        "numberOfBytes": "32"
      }
    }
  }
}