{
  "address": "0x4DF39ff5C708d97Ea7808767E6a67FDEdceBC75F",
  "abi": [
    {
      "anonymous": false,
      "inputs": [
        {
          "indexed": true,
          "internalType": "address",
          "name": "bookAddress",
          "type": "address"
        },
        {
          "indexed": false,
          "internalType": "string",
          "name": "tokenName",
          "type": "string"
        },
        {
          "indexed": false,
          "internalType": "string",
          "name": "symbol",
          "type": "string"
        },
        {
          "indexed": false,
          "internalType": "uint256",
          "name": "price",
          "type": "uint256"
        },
        {
          "indexed": false,
          "internalType": "string",
          "name": "baseURI",
          "type": "string"
        }
      ],
      "name": "BookCreated",
      "type": "event"
    },
    {
      "anonymous": false,
      "inputs": [
        {
          "indexed": true,
          "internalType": "address",
          "name": "bookAddress",
          "type": "address"
        },
        {
          "indexed": false,
          "internalType": "string",
          "name": "ipfsCid",
          "type": "string"
        }
      ],
      "name": "BookIpfsCidSet",
      "type": "event"
    },
    {
      "anonymous": false,
      "inputs": [
        {
          "indexed": true,
          "internalType": "address",
          "name": "buyer",
          "type": "address"
        },
        {
          "indexed": true,
          "internalType": "address",
          "name": "bookAddress",
          "type": "address"
        },
        {
          "indexed": false,
          "internalType": "uint256",
          "name": "tokenId",
          "type": "uint256"
        }
      ],
      "name": "BookPurchased",
      "type": "event"
    },
    {
      "inputs": [
        {
          "internalType": "uint256",
          "name": "",
          "type": "uint256"
        }
      ],
      "name": "bookAddresses",
      "outputs": [
        {
          "internalType": "address",
          "name": "",
          "type": "address"
        }
      ],
      "stateMutability": "view",
      "type": "function"
    },
    {
      "inputs": [
        {
          "internalType": "address",
          "name": "",
          "type": "address"
        }
      ],
      "name": "books",
      "outputs": [
        {
          "internalType": "address",
          "name": "bookAddress",
          "type": "address"
        },
        {
          "internalType": "string",
          "name": "name",
          "type": "string"
        },
        {
          "internalType": "string",
          "name": "symbol",
          "type": "string"
        },
        {
          "internalType": "uint256",
          "name": "price",
          "type": "uint256"
        },
        {
          "internalType": "string",
          "name": "baseURI",
          "type": "string"
        }
      ],
      "stateMutability": "view",
      "type": "function"
    },
    {
      "inputs": [
        {
          "internalType": "string",
          "name": "name",
          "type": "string"
        },
        {
          "internalType": "string",
          "name": "symbol",
          "type": "string"
        },
        {
          "internalType": "uint256",
          "name": "bookPrice",
          "type": "uint256"
        },
        {
          "internalType": "string",
          "name": "baseURI",
          "type": "string"
        }
      ],
      "name": "createBook",
      "outputs": [
        {
          "internalType": "address",
          "name": "",
          "type": "address"
        }
      ],
      "stateMutability": "nonpayable",
      "type": "function"
    },
    {
      "inputs": [],
      "name": "getAllBookAddresses",
      "outputs": [
        {
          "internalType": "address[]",
          "name": "",
          "type": "address[]"
        }
      ],
      "stateMutability": "view",
      "type": "function"
    },
    {
      "inputs": [
        {
          "internalType": "address",
          "name": "bookAddress",
          "type": "address"
        }
      ],
      "name": "getBookIpfsCid",
      "outputs": [
        {
          "internalType": "string",
          "name": "",
          "type": "string"
        }
      ],
      "stateMutability": "view",
      "type": "function"
    },
    {
      "inputs": [
        {
          "internalType": "address",
          "name": "bookAddress",
          "type": "address"
        }
      ],
      "name": "purchaseBookFromAddress",
      "outputs": [],
      "stateMutability": "payable",
      "type": "function"
    },
    {
      "inputs": [
        {
          "internalType": "address",
          "name": "bookAddress",
          "type": "address"
        },
        {
          "internalType": "string",
          "name": "newIpfsCid",
          "type": "string"
        }
      ],
      "name": "setBookIpfsCid",
      "outputs": [],
      "stateMutability": "nonpayable",
      "type": "function"
    }
  ],
  "transactionHash": "0x9cf640018acb40d9341ee540c6b0b487e56ebcb5fee40d37a24cb68b225be371",
  "args": [],
  "numDeployments": 8,
  "solcInputHash": "22512f2005b89fda734c3913d64c6089",
  "bytecode": "0x608060405234801561001057600080fd5b50613597806100206000396000f3fe608060405260043610620000795760003560e01c8063a34dfff21162000054578063a34dfff2146200011a578063a637107c1462000131578063b17bec561462000158578063f8392282146200019657600080fd5b806317409fe0146200007e57806318bca11314620000a557806374eb1e5f14620000e2575b600080fd5b3480156200008b57600080fd5b50620000a36200009d36600462001135565b620001bb565b005b348015620000b257600080fd5b50620000ca620000c436600462001189565b620004ab565b604051620000d9919062001202565b60405180910390f35b348015620000ef57600080fd5b50620001076200010136600462001189565b6200075c565b604051620000d995949392919062001217565b620000a36200012b36600462001189565b62000946565b3480156200013e57600080fd5b506200014962000cb7565b604051620000d9919062001279565b3480156200016557600080fd5b506200017d62000177366004620012c8565b62000d1b565b6040516001600160a01b039091168152602001620000d9565b348015620001a357600080fd5b506200017d620001b536600462001364565b62000f05565b6001600160a01b038083166000908152600160208181526040808420815160a081019092528054909516815291840180549394929391840191620001ff906200137e565b80601f01602080910402602001604051908101604052809291908181526020018280546200022d906200137e565b80156200027e5780601f1062000252576101008083540402835291602001916200027e565b820191906000526020600020905b8154815290600101906020018083116200026057829003601f168201915b5050505050815260200160028201805462000299906200137e565b80601f0160208091040260200160405190810160405280929190818152602001828054620002c7906200137e565b8015620003185780601f10620002ec5761010080835404028352916020019162000318565b820191906000526020600020905b815481529060010190602001808311620002fa57829003601f168201915b50505050508152602001600382015481526020016004820180546200033d906200137e565b80601f01602080910402602001604051908101604052809291908181526020018280546200036b906200137e565b8015620003bc5780601f106200039057610100808354040283529160200191620003bc565b820191906000526020600020905b8154815290600101906020018083116200039e57829003601f168201915b5050509190925250508151919250506001600160a01b0316620003fc5760405162461bcd60e51b8152600401620003f390620013ba565b60405180910390fd5b604051634e60c53160e11b815283906001600160a01b03821690639cc18a62906200042e9086903390600401620013e7565b600060405180830381600087803b1580156200044957600080fd5b505af11580156200045e573d6000803e3d6000fd5b50505050836001600160a01b03167fed12fd7250feebdc6d04588df0094ba2a7cdd1510c4fa4dcb10548b0d388048d846040516200049d919062001202565b60405180910390a250505050565b6001600160a01b038082166000908152600160208181526040808420815160a081019092528054909516815291840180546060959284019190620004ef906200137e565b80601f01602080910402602001604051908101604052809291908181526020018280546200051d906200137e565b80156200056e5780601f1062000542576101008083540402835291602001916200056e565b820191906000526020600020905b8154815290600101906020018083116200055057829003601f168201915b5050505050815260200160028201805462000589906200137e565b80601f0160208091040260200160405190810160405280929190818152602001828054620005b7906200137e565b8015620006085780601f10620005dc5761010080835404028352916020019162000608565b820191906000526020600020905b815481529060010190602001808311620005ea57829003601f168201915b50505050508152602001600382015481526020016004820180546200062d906200137e565b80601f01602080910402602001604051908101604052809291908181526020018280546200065b906200137e565b8015620006ac5780601f106200068057610100808354040283529160200191620006ac565b820191906000526020600020905b8154815290600101906020018083116200068e57829003601f168201915b5050509190925250508151919250506001600160a01b0316620006e35760405162461bcd60e51b8152600401620003f390620013ba565b60008390506000816001600160a01b031663e7c711f46040518163ffffffff1660e01b8152600401600060405180830381865afa15801562000729573d6000803e3d6000fd5b505050506040513d6000823e601f3d908101601f1916820160405262000753919081019062001413565b95945050505050565b6001602081905260009182526040909120805491810180546001600160a01b03909316926200078b906200137e565b80601f0160208091040260200160405190810160405280929190818152602001828054620007b9906200137e565b80156200080a5780601f10620007de576101008083540402835291602001916200080a565b820191906000526020600020905b815481529060010190602001808311620007ec57829003601f168201915b50505050509080600201805462000821906200137e565b80601f01602080910402602001604051908101604052809291908181526020018280546200084f906200137e565b8015620008a05780601f106200087457610100808354040283529160200191620008a0565b820191906000526020600020905b8154815290600101906020018083116200088257829003601f168201915b505050505090806003015490806004018054620008bd906200137e565b80601f0160208091040260200160405190810160405280929190818152602001828054620008eb906200137e565b80156200093c5780601f1062000910576101008083540402835291602001916200093c565b820191906000526020600020905b8154815290600101906020018083116200091e57829003601f168201915b5050505050905085565b6001600160a01b038082166000908152600160208181526040808420815160a0810190925280549095168152918401805493949293918401916200098a906200137e565b80601f0160208091040260200160405190810160405280929190818152602001828054620009b8906200137e565b801562000a095780601f10620009dd5761010080835404028352916020019162000a09565b820191906000526020600020905b815481529060010190602001808311620009eb57829003601f168201915b5050505050815260200160028201805462000a24906200137e565b80601f016020809104026020016040519081016040528092919081815260200182805462000a52906200137e565b801562000aa35780601f1062000a775761010080835404028352916020019162000aa3565b820191906000526020600020905b81548152906001019060200180831162000a8557829003601f168201915b505050505081526020016003820154815260200160048201805462000ac8906200137e565b80601f016020809104026020016040519081016040528092919081815260200182805462000af6906200137e565b801562000b475780601f1062000b1b5761010080835404028352916020019162000b47565b820191906000526020600020905b81548152906001019060200180831162000b2957829003601f168201915b5050509190925250508151919250506001600160a01b031662000b7e5760405162461bcd60e51b8152600401620003f390620013ba565b8060600151341462000bc55760405162461bcd60e51b815260206004820152600f60248201526e496e636f727265637420707269636560881b6044820152606401620003f3565b604051600162f5be1b60e01b0319815233600482015282906000906001600160a01b0383169063ff0a41e590349060240160206040518083038185885af115801562000c15573d6000803e3d6000fd5b50505050506040513d601f19601f8201168201806040525081019062000c3c91906200148a565b9050836001600160a01b0316336001600160a01b03167f11d98acd9bb3b842882be6ca4685c16bbd2913b62cf728fa039a86cf8ed3c5088360405162000c8491815260200190565b60405180910390a362000cb16040518060600160405280602c815260200162003536602c91398262000f30565b50505050565b6060600080548060200260200160405190810160405280929190818152602001828054801562000d1157602002820191906000526020600020905b81546001600160a01b0316815260019091019060200180831162000cf2575b5050505050905090565b600062000d5560405180604001604052806014815260200173426f6f6b2773206261736555524920697320257360601b8152508362000f7d565b6000858585853360405162000d6a9062001039565b62000d7a959493929190620014a4565b604051809103906000f08015801562000d97573d6000803e3d6000fd5b506040805160a0810182526001600160a01b0383811680835260208084018c81528486018c9052606085018b9052608085018a9052600092835260019182905294909120835181546001600160a01b031916931692909217825592519394509092839282019062000e09908262001557565b506040820151600282019062000e20908262001557565b50606082015160038201556080820151600482019062000e41908262001557565b5050600080546001810182559080527f290decd9548b62a8d60345a988386fc84ba6bc95484008f6362f93160ef3e5630180546001600160a01b0319166001600160a01b038516179055506040805160608101909152602880825262000eb291906200350e60208301398362000fc6565b816001600160a01b03167f23abe0284bec1278785b44a7d08f106a799ece807dfd632f8301f5520826affb8888888860405162000ef3949392919062001624565b60405180910390a25095945050505050565b6000818154811062000f1657600080fd5b6000918252602090912001546001600160a01b0316905081565b62000f79828260405160240162000f4992919062001674565b60408051601f198184030181529190526020810180516001600160e01b0316632d839cb360e21b1790526200100a565b5050565b62000f79828260405160240162000f9692919062001698565b60408051601f198184030181529190526020810180516001600160e01b0316634b5c427760e01b1790526200100a565b62000f79828260405160240162000fdf929190620013e7565b60408051601f198184030181529190526020810180516001600160e01b031663319af33360e01b1790525b620010158162001018565b50565b60006a636f6e736f6c652e6c6f679050600080835160208501845afa505050565b611e4c80620016c283390190565b80356001600160a01b03811681146200105f57600080fd5b919050565b634e487b7160e01b600052604160045260246000fd5b604051601f8201601f1916810167ffffffffffffffff81118282101715620010a657620010a662001064565b604052919050565b600067ffffffffffffffff821115620010cb57620010cb62001064565b50601f01601f191660200190565b600082601f830112620010eb57600080fd5b813562001102620010fc82620010ae565b6200107a565b8181528460208386010111156200111857600080fd5b816020850160208301376000918101602001919091529392505050565b600080604083850312156200114957600080fd5b620011548362001047565b9150602083013567ffffffffffffffff8111156200117157600080fd5b6200117f85828601620010d9565b9150509250929050565b6000602082840312156200119c57600080fd5b620011a78262001047565b9392505050565b60005b83811015620011cb578181015183820152602001620011b1565b50506000910152565b60008151808452620011ee816020860160208601620011ae565b601f01601f19169290920160200192915050565b602081526000620011a76020830184620011d4565b6001600160a01b038616815260a0602082018190526000906200123d90830187620011d4565b8281036040840152620012518187620011d4565b905084606084015282810360808401526200126d8185620011d4565b98975050505050505050565b6020808252825182820181905260009190848201906040850190845b81811015620012bc5783516001600160a01b03168352928401929184019160010162001295565b50909695505050505050565b60008060008060808587031215620012df57600080fd5b843567ffffffffffffffff80821115620012f857600080fd5b6200130688838901620010d9565b955060208701359150808211156200131d57600080fd5b6200132b88838901620010d9565b94506040870135935060608701359150808211156200134957600080fd5b506200135887828801620010d9565b91505092959194509250565b6000602082840312156200137757600080fd5b5035919050565b600181811c908216806200139357607f821691505b602082108103620013b457634e487b7160e01b600052602260045260246000fd5b50919050565b602080825260139082015272109bdbdac8191bd95cc81b9bdd08195e1a5cdd606a1b604082015260600190565b604081526000620013fc6040830185620011d4565b905060018060a01b03831660208301529392505050565b6000602082840312156200142657600080fd5b815167ffffffffffffffff8111156200143e57600080fd5b8201601f810184136200145057600080fd5b805162001461620010fc82620010ae565b8181528560208385010111156200147757600080fd5b62000753826020830160208601620011ae565b6000602082840312156200149d57600080fd5b5051919050565b60a081526000620014b960a0830188620011d4565b8281036020840152620014cd8188620011d4565b90508560408401528281036060840152620014e98186620011d4565b91505060018060a01b03831660808301529695505050505050565b601f8211156200155257600081815260208120601f850160051c810160208610156200152d5750805b601f850160051c820191505b818110156200154e5782815560010162001539565b5050505b505050565b815167ffffffffffffffff81111562001574576200157462001064565b6200158c816200158584546200137e565b8462001504565b602080601f831160018114620015c45760008415620015ab5750858301515b600019600386901b1c1916600185901b1785556200154e565b600085815260208120601f198616915b82811015620015f557888601518255948401946001909101908401620015d4565b5085821015620016145787850151600019600388901b60f8161c191681555b5050505050600190811b01905550565b608081526000620016396080830187620011d4565b82810360208401526200164d8187620011d4565b90508460408401528281036060840152620016698185620011d4565b979650505050505050565b604081526000620016896040830185620011d4565b90508260208301529392505050565b604081526000620016ad6040830185620011d4565b8281036020840152620007538185620011d456fe60806040523480156200001157600080fd5b5060405162001e4c38038062001e4c833981016040819052620000349162000296565b84846000620000448382620003e4565b506001620000538282620003e4565b505050620000706200006a6200009a60201b60201c565b6200009e565b6009839055600a620000838382620003e4565b506200008f81620000f0565b5050505050620004b0565b3390565b600780546001600160a01b038381166001600160a01b0319831681179093556040519116919082907f8be0079c531659141344cd1fd0a4f28419497f9722a3daafe3b4186f6b6457e090600090a35050565b620000fa62000173565b6001600160a01b038116620001655760405162461bcd60e51b815260206004820152602660248201527f4f776e61626c653a206e6577206f776e657220697320746865207a65726f206160448201526564647265737360d01b60648201526084015b60405180910390fd5b62000170816200009e565b50565b6007546001600160a01b03163314620001cf5760405162461bcd60e51b815260206004820181905260248201527f4f776e61626c653a2063616c6c6572206973206e6f7420746865206f776e657260448201526064016200015c565b565b634e487b7160e01b600052604160045260246000fd5b600082601f830112620001f957600080fd5b81516001600160401b0380821115620002165762000216620001d1565b604051601f8301601f19908116603f01168101908282118183101715620002415762000241620001d1565b816040528381526020925086838588010111156200025e57600080fd5b600091505b8382101562000282578582018301518183018401529082019062000263565b600093810190920192909252949350505050565b600080600080600060a08688031215620002af57600080fd5b85516001600160401b0380821115620002c757600080fd5b620002d589838a01620001e7565b96506020880151915080821115620002ec57600080fd5b620002fa89838a01620001e7565b95506040880151945060608801519150808211156200031857600080fd5b506200032788828901620001e7565b608088015190935090506001600160a01b03811681146200034757600080fd5b809150509295509295909350565b600181811c908216806200036a57607f821691505b6020821081036200038b57634e487b7160e01b600052602260045260246000fd5b50919050565b601f821115620003df57600081815260208120601f850160051c81016020861015620003ba5750805b601f850160051c820191505b81811015620003db57828155600101620003c6565b5050505b505050565b81516001600160401b03811115620004005762000400620001d1565b620004188162000411845462000355565b8462000391565b602080601f831160018114620004505760008415620004375750858301515b600019600386901b1c1916600185901b178555620003db565b600085815260208120601f198616915b82811015620004815788860151825594840194600190910190840162000460565b5085821015620004a05787850151600019600388901b60f8161c191681555b5050505050600190811b01905550565b61198c80620004c06000396000f3fe60806040526004361061011f5760003560e01c80638da5cb5b116100a0578063c87b56dd11610064578063c87b56dd14610321578063e7c711f414610341578063e985e9c514610356578063f2fde38b1461039f578063ff0a41e5146103bf57600080fd5b80638da5cb5b1461028e57806395d89b41146102ac5780639cc18a62146102c1578063a22cb465146102e1578063b88d4fde1461030157600080fd5b806342842e0e116100e757806342842e0e146101f55780636352211e146102155780636e9164f41461023557806370a0823114610259578063715018a61461027957600080fd5b806301ffc9a71461012457806306fdde0314610159578063081812fc1461017b578063095ea7b3146101b357806323b872dd146101d5575b600080fd5b34801561013057600080fd5b5061014461013f36600461139b565b6103d2565b60405190151581526020015b60405180910390f35b34801561016557600080fd5b5061016e6103fd565b6040516101509190611408565b34801561018757600080fd5b5061019b61019636600461141b565b61048f565b6040516001600160a01b039091168152602001610150565b3480156101bf57600080fd5b506101d36101ce366004611450565b6104b6565b005b3480156101e157600080fd5b506101d36101f036600461147a565b6105d0565b34801561020157600080fd5b506101d361021036600461147a565b610601565b34801561022157600080fd5b5061019b61023036600461141b565b61061c565b34801561024157600080fd5b5061024b60095481565b604051908152602001610150565b34801561026557600080fd5b5061024b6102743660046114b6565b61067c565b34801561028557600080fd5b506101d3610702565b34801561029a57600080fd5b506007546001600160a01b031661019b565b3480156102b857600080fd5b5061016e610716565b3480156102cd57600080fd5b506101d36102dc36600461155d565b610725565b3480156102ed57600080fd5b506101d36102fc3660046115bf565b6107e3565b34801561030d57600080fd5b506101d361031c3660046115fb565b6107f2565b34801561032d57600080fd5b5061016e61033c36600461141b565b61082a565b34801561034d57600080fd5b5061016e61092d565b34801561036257600080fd5b50610144610371366004611677565b6001600160a01b03918216600090815260056020908152604080832093909416825291909152205460ff1690565b3480156103ab57600080fd5b506101d36103ba3660046114b6565b61093c565b61024b6103cd3660046114b6565b6109b5565b60006001600160e01b03198216632483248360e11b14806103f757506103f782610a1f565b92915050565b60606000805461040c906116a1565b80601f0160208091040260200160405190810160405280929190818152602001828054610438906116a1565b80156104855780601f1061045a57610100808354040283529160200191610485565b820191906000526020600020905b81548152906001019060200180831161046857829003601f168201915b5050505050905090565b600061049a82610a6f565b506000908152600460205260409020546001600160a01b031690565b60006104c18261061c565b9050806001600160a01b0316836001600160a01b0316036105335760405162461bcd60e51b815260206004820152602160248201527f4552433732313a20617070726f76616c20746f2063757272656e74206f776e656044820152603960f91b60648201526084015b60405180910390fd5b336001600160a01b038216148061054f575061054f8133610371565b6105c15760405162461bcd60e51b815260206004820152603d60248201527f4552433732313a20617070726f76652063616c6c6572206973206e6f7420746f60448201527f6b656e206f776e6572206f7220617070726f76656420666f7220616c6c000000606482015260840161052a565b6105cb8383610ace565b505050565b6105da3382610b3c565b6105f65760405162461bcd60e51b815260040161052a906116db565b6105cb838383610bba565b6105cb838383604051806020016040528060008152506107f2565b6000818152600260205260408120546001600160a01b0316806103f75760405162461bcd60e51b8152602060048201526018602482015277115490cdcc8c4e881a5b9d985b1a59081d1bdad95b88125160421b604482015260640161052a565b60006001600160a01b0382166106e65760405162461bcd60e51b815260206004820152602960248201527f4552433732313a2061646472657373207a65726f206973206e6f7420612076616044820152683634b21037bbb732b960b91b606482015260840161052a565b506001600160a01b031660009081526003602052604090205490565b61070a610d1e565b6107146000610d78565b565b60606001805461040c906116a1565b6007546001600160a01b038281169116146107725760405162461bcd60e51b815260206004820152600d60248201526c2737ba103a34329037bbb732b960991b604482015260640161052a565b600c5460ff16156107c55760405162461bcd60e51b815260206004820181905260248201527f626f6f6b497066734369642068617320616c7265616479206265656e20736574604482015260640161052a565b600b6107d18382611776565b5050600c805460ff1916600117905550565b6107ee338383610dca565b5050565b6107fc3383610b3c565b6108185760405162461bcd60e51b815260040161052a906116db565b61082484848484610e98565b50505050565b606061083582610a6f565b6000828152600660205260408120805461084e906116a1565b80601f016020809104026020016040519081016040528092919081815260200182805461087a906116a1565b80156108c75780601f1061089c576101008083540402835291602001916108c7565b820191906000526020600020905b8154815290600101906020018083116108aa57829003601f168201915b5050505050905060006108d8610ecb565b905080516000036108ea575092915050565b81511561091c578082604051602001610904929190611836565b60405160208183030381529060405292505050919050565b61092584610eda565b949350505050565b6060600b805461040c906116a1565b610944610d1e565b6001600160a01b0381166109a95760405162461bcd60e51b815260206004820152602660248201527f4f776e61626c653a206e6577206f776e657220697320746865207a65726f206160448201526564647265737360d01b606482015260840161052a565b6109b281610d78565b50565b600060095434146109fa5760405162461bcd60e51b815260206004820152600f60248201526e496e636f727265637420707269636560881b604482015260640161052a565b6000610a0560085490565b9050610a15600880546001019055565b6103f78382610f41565b60006001600160e01b031982166380ac58cd60e01b1480610a5057506001600160e01b03198216635b5e139f60e01b145b806103f757506301ffc9a760e01b6001600160e01b03198316146103f7565b6000818152600260205260409020546001600160a01b03166109b25760405162461bcd60e51b8152602060048201526018602482015277115490cdcc8c4e881a5b9d985b1a59081d1bdad95b88125160421b604482015260640161052a565b600081815260046020526040902080546001600160a01b0319166001600160a01b0384169081179091558190610b038261061c565b6001600160a01b03167f8c5be1e5ebec7d5bd14f71427d1e84f3dd0314c0f7b2291e5b200ac8c7c3b92560405160405180910390a45050565b600080610b488361061c565b9050806001600160a01b0316846001600160a01b03161480610b8f57506001600160a01b0380821660009081526005602090815260408083209388168352929052205460ff165b806109255750836001600160a01b0316610ba88461048f565b6001600160a01b031614949350505050565b826001600160a01b0316610bcd8261061c565b6001600160a01b031614610bf35760405162461bcd60e51b815260040161052a90611865565b6001600160a01b038216610c555760405162461bcd60e51b8152602060048201526024808201527f4552433732313a207472616e7366657220746f20746865207a65726f206164646044820152637265737360e01b606482015260840161052a565b826001600160a01b0316610c688261061c565b6001600160a01b031614610c8e5760405162461bcd60e51b815260040161052a90611865565b600081815260046020908152604080832080546001600160a01b03199081169091556001600160a01b0387811680865260038552838620805460001901905590871680865283862080546001019055868652600290945282852080549092168417909155905184937fddf252ad1be2c89b69c2b068fc378daa952ba7f163c4a11628f55a4df523b3ef91a4505050565b6007546001600160a01b031633146107145760405162461bcd60e51b815260206004820181905260248201527f4f776e61626c653a2063616c6c6572206973206e6f7420746865206f776e6572604482015260640161052a565b600780546001600160a01b038381166001600160a01b0319831681179093556040519116919082907f8be0079c531659141344cd1fd0a4f28419497f9722a3daafe3b4186f6b6457e090600090a35050565b816001600160a01b0316836001600160a01b031603610e2b5760405162461bcd60e51b815260206004820152601960248201527f4552433732313a20617070726f766520746f2063616c6c657200000000000000604482015260640161052a565b6001600160a01b03838116600081815260056020908152604080832094871680845294825291829020805460ff191686151590811790915591519182527f17307eab39ab6107e8899845ad3d59bd9653f200f220920489ca2b5937696c31910160405180910390a3505050565b610ea3848484610bba565b610eaf84848484610f5b565b6108245760405162461bcd60e51b815260040161052a906118aa565b6060600a805461040c906116a1565b6060610ee582610a6f565b6000610eef610ecb565b90506000815111610f0f5760405180602001604052806000815250610f3a565b80610f198461105c565b604051602001610f2a929190611836565b6040516020818303038152906040525b9392505050565b6107ee8282604051806020016040528060008152506110ef565b60006001600160a01b0384163b1561105157604051630a85bd0160e11b81526001600160a01b0385169063150b7a0290610f9f9033908990889088906004016118fc565b6020604051808303816000875af1925050508015610fda575060408051601f3d908101601f19168201909252610fd791810190611939565b60015b611037573d808015611008576040519150601f19603f3d011682016040523d82523d6000602084013e61100d565b606091505b50805160000361102f5760405162461bcd60e51b815260040161052a906118aa565b805181602001fd5b6001600160e01b031916630a85bd0160e11b149050610925565b506001949350505050565b6060600061106983611122565b600101905060008167ffffffffffffffff811115611089576110896114d1565b6040519080825280601f01601f1916602001820160405280156110b3576020820181803683370190505b5090508181016020015b600019016f181899199a1a9b1b9c1cb0b131b232b360811b600a86061a8153600a85049450846110bd57509392505050565b6110f983836111fa565b6111066000848484610f5b565b6105cb5760405162461bcd60e51b815260040161052a906118aa565b60008072184f03e93ff9f4daa797ed6e38ed64bf6a1f0160401b83106111615772184f03e93ff9f4daa797ed6e38ed64bf6a1f0160401b830492506040015b6d04ee2d6d415b85acef8100000000831061118d576d04ee2d6d415b85acef8100000000830492506020015b662386f26fc1000083106111ab57662386f26fc10000830492506010015b6305f5e10083106111c3576305f5e100830492506008015b61271083106111d757612710830492506004015b606483106111e9576064830492506002015b600a83106103f75760010192915050565b6001600160a01b0382166112505760405162461bcd60e51b815260206004820181905260248201527f4552433732313a206d696e7420746f20746865207a65726f2061646472657373604482015260640161052a565b6000818152600260205260409020546001600160a01b0316156112b55760405162461bcd60e51b815260206004820152601c60248201527f4552433732313a20746f6b656e20616c7265616479206d696e74656400000000604482015260640161052a565b6000818152600260205260409020546001600160a01b03161561131a5760405162461bcd60e51b815260206004820152601c60248201527f4552433732313a20746f6b656e20616c7265616479206d696e74656400000000604482015260640161052a565b6001600160a01b038216600081815260036020908152604080832080546001019055848352600290915280822080546001600160a01b0319168417905551839291907fddf252ad1be2c89b69c2b068fc378daa952ba7f163c4a11628f55a4df523b3ef908290a45050565b6001600160e01b0319811681146109b257600080fd5b6000602082840312156113ad57600080fd5b8135610f3a81611385565b60005b838110156113d35781810151838201526020016113bb565b50506000910152565b600081518084526113f48160208601602086016113b8565b601f01601f19169290920160200192915050565b602081526000610f3a60208301846113dc565b60006020828403121561142d57600080fd5b5035919050565b80356001600160a01b038116811461144b57600080fd5b919050565b6000806040838503121561146357600080fd5b61146c83611434565b946020939093013593505050565b60008060006060848603121561148f57600080fd5b61149884611434565b92506114a660208501611434565b9150604084013590509250925092565b6000602082840312156114c857600080fd5b610f3a82611434565b634e487b7160e01b600052604160045260246000fd5b600067ffffffffffffffff80841115611502576115026114d1565b604051601f8501601f19908116603f0116810190828211818310171561152a5761152a6114d1565b8160405280935085815286868601111561154357600080fd5b858560208301376000602087830101525050509392505050565b6000806040838503121561157057600080fd5b823567ffffffffffffffff81111561158757600080fd5b8301601f8101851361159857600080fd5b6115a7858235602084016114e7565b9250506115b660208401611434565b90509250929050565b600080604083850312156115d257600080fd5b6115db83611434565b9150602083013580151581146115f057600080fd5b809150509250929050565b6000806000806080858703121561161157600080fd5b61161a85611434565b935061162860208601611434565b925060408501359150606085013567ffffffffffffffff81111561164b57600080fd5b8501601f8101871361165c57600080fd5b61166b878235602084016114e7565b91505092959194509250565b6000806040838503121561168a57600080fd5b61169383611434565b91506115b660208401611434565b600181811c908216806116b557607f821691505b6020821081036116d557634e487b7160e01b600052602260045260246000fd5b50919050565b6020808252602d908201527f4552433732313a2063616c6c6572206973206e6f7420746f6b656e206f776e6560408201526c1c881bdc88185c1c1c9bdd9959609a1b606082015260800190565b601f8211156105cb57600081815260208120601f850160051c8101602086101561174f5750805b601f850160051c820191505b8181101561176e5782815560010161175b565b505050505050565b815167ffffffffffffffff811115611790576117906114d1565b6117a48161179e84546116a1565b84611728565b602080601f8311600181146117d957600084156117c15750858301515b600019600386901b1c1916600185901b17855561176e565b600085815260208120601f198616915b82811015611808578886015182559484019460019091019084016117e9565b50858210156118265787850151600019600388901b60f8161c191681555b5050505050600190811b01905550565b600083516118488184602088016113b8565b83519083019061185c8183602088016113b8565b01949350505050565b60208082526025908201527f4552433732313a207472616e736665722066726f6d20696e636f72726563742060408201526437bbb732b960d91b606082015260800190565b60208082526032908201527f4552433732313a207472616e7366657220746f206e6f6e20455243373231526560408201527131b2b4bb32b91034b6b83632b6b2b73a32b960711b606082015260800190565b6001600160a01b038581168252841660208201526040810183905260806060820181905260009061192f908301846113dc565b9695505050505050565b60006020828403121561194b57600080fd5b8151610f3a8161138556fea26469706673582212200656184a6f162408eeb2048d4856f9e49bb76a767a1ae7dcb8fbe262daf0f23e64736f6c63430008140033426f6f6b20637265617465642073756363657366756c6c7920776974682061646472657373202573426f6f6b207769746820746f6b656e20494420257320707572636861736564207375636365737366756c6c79a26469706673582212202b6a2b5245ea743608bbcb96357b85b2f5c6a90cb7348aaba1622fb686e9242b64736f6c63430008140033",
  "devdoc": {
    "kind": "dev",
    "methods": {},
    "version": 1
  },
  "userdoc": {
    "kind": "user",
    "methods": {},
    "version": 1
  },
  "storageLayout": {
    "storage": [
      {
        "astId": 3201,
        "contract": "contracts/BookFactory.sol:BookFactory",
        "label": "bookAddresses",
        "offset": 0,
        "slot": "0",
        "type": "t_array(t_address)dyn_storage"
      },
      {
        "astId": 3206,
        "contract": "contracts/BookFactory.sol:BookFactory",
        "label": "books",
        "offset": 0,
        "slot": "1",
        "type": "t_mapping(t_address,t_struct(BookInfo)3198_storage)"
      }
    ],
    "types": {
      "t_address": {
        "encoding": "inplace",
        "label": "address",
        "numberOfBytes": "20"
      },
      "t_array(t_address)dyn_storage": {
        "base": "t_address",
        "encoding": "dynamic_array",
        "label": "address[]",
        "numberOfBytes": "32"
      },
      "t_mapping(t_address,t_struct(BookInfo)3198_storage)": {
        "encoding": "mapping",
        "key": "t_address",
        "label": "mapping(address => struct BookFactory.BookInfo)",
        "numberOfBytes": "32",
        "value": "t_struct(BookInfo)3198_storage"
      },
      "t_string_storage": {
        "encoding": "bytes",
        "label": "string",
        "numberOfBytes": "32"
      },
      "t_struct(BookInfo)3198_storage": {
        "encoding": "inplace",
        "label": "struct BookFactory.BookInfo",
        "members": [
          {
            "astId": 3189,
            "contract": "contracts/BookFactory.sol:BookFactory",
            "label": "bookAddress",
            "offset": 0,
            "slot": "0",
            "type": "t_address"
          },
          {
            "astId": 3191,
            "contract": "contracts/BookFactory.sol:BookFactory",
            "label": "name",
            "offset": 0,
            "slot": "1",
            "type": "t_string_storage"
          },
          {
            "astId": 3193,
            "contract": "contracts/BookFactory.sol:BookFactory",
            "label": "symbol",
            "offset": 0,
            "slot": "2",
            "type": "t_string_storage"
          },
          {
            "astId": 3195,
            "contract": "contracts/BookFactory.sol:BookFactory",
            "label": "price",
            "offset": 0,
            "slot": "3",
            "type": "t_uint256"
          },
          {
            "astId": 3197,
            "contract": "contracts/BookFactory.sol:BookFactory",
            "label": "baseURI",
            "offset": 0,
            "slot": "4",
            "type": "t_string_storage"
          }
        ],
        "numberOfBytes": "160"
      },
      "t_uint256": {
        "encoding": "inplace",
        "label": "uint256",
        "numberOfBytes": "32"
      }
    }
  }
}