{
  "address": "0x7B9f1898708D44C4E3ab7d593Af91f1825fDE2E1",
  "abi": [
    {
      "inputs": [],
      "name": "NothingToWithdraw",
      "type": "error"
    },
    {
      "anonymous": false,
      "inputs": [
        {
          "indexed": true,
          "internalType": "address",
          "name": "bookAddress",
          "type": "address"
        },
        {
          "indexed": false,
          "internalType": "string",
          "name": "ipfsCoverCid",
          "type": "string"
        }
      ],
      "name": "BookCoverIpfsCidSet",
      "type": "event"
    },
    {
      "anonymous": false,
      "inputs": [
        {
          "indexed": true,
          "internalType": "address",
          "name": "bookAddress",
          "type": "address"
        },
        {
          "indexed": false,
          "internalType": "string",
          "name": "tokenName",
          "type": "string"
        },
        {
          "indexed": false,
          "internalType": "string",
          "name": "symbol",
          "type": "string"
        },
        {
          "indexed": false,
          "internalType": "uint256",
          "name": "price",
          "type": "uint256"
        },
        {
          "indexed": false,
          "internalType": "string",
          "name": "baseURI",
          "type": "string"
        }
      ],
      "name": "BookCreated",
      "type": "event"
    },
    {
      "anonymous": false,
      "inputs": [
        {
          "indexed": true,
          "internalType": "address",
          "name": "bookAddress",
          "type": "address"
        },
        {
          "indexed": false,
          "internalType": "string",
          "name": "ipfsCid",
          "type": "string"
        }
      ],
      "name": "BookIpfsCidSet",
      "type": "event"
    },
    {
      "anonymous": false,
      "inputs": [
        {
          "indexed": true,
          "internalType": "address",
          "name": "buyer",
          "type": "address"
        },
        {
          "indexed": true,
          "internalType": "address",
          "name": "bookAddress",
          "type": "address"
        },
        {
          "indexed": false,
          "internalType": "uint256",
          "name": "tokenId",
          "type": "uint256"
        }
      ],
      "name": "BookPurchased",
      "type": "event"
    },
    {
      "anonymous": false,
      "inputs": [
        {
          "indexed": false,
          "internalType": "uint256",
          "name": "newFee",
          "type": "uint256"
        }
      ],
      "name": "CreationFeeUpdated",
      "type": "event"
    },
    {
      "anonymous": false,
      "inputs": [
        {
          "indexed": true,
          "internalType": "address",
          "name": "previousOwner",
          "type": "address"
        },
        {
          "indexed": true,
          "internalType": "address",
          "name": "newOwner",
          "type": "address"
        }
      ],
      "name": "OwnershipTransferred",
      "type": "event"
    },
    {
      "inputs": [
        {
          "internalType": "uint256",
          "name": "",
          "type": "uint256"
        }
      ],
      "name": "bookAddresses",
      "outputs": [
        {
          "internalType": "address",
          "name": "",
          "type": "address"
        }
      ],
      "stateMutability": "view",
      "type": "function"
    },
    {
      "inputs": [
        {
          "internalType": "address",
          "name": "",
          "type": "address"
        }
      ],
      "name": "books",
      "outputs": [
        {
          "internalType": "address",
          "name": "bookAddress",
          "type": "address"
        },
        {
          "internalType": "string",
          "name": "name",
          "type": "string"
        },
        {
          "internalType": "string",
          "name": "symbol",
          "type": "string"
        },
        {
          "internalType": "uint256",
          "name": "price",
          "type": "uint256"
        },
        {
          "internalType": "string",
          "name": "baseURI",
          "type": "string"
        }
      ],
      "stateMutability": "view",
      "type": "function"
    },
    {
      "inputs": [
        {
          "internalType": "string",
          "name": "name",
          "type": "string"
        },
        {
          "internalType": "string",
          "name": "symbol",
          "type": "string"
        },
        {
          "internalType": "uint256",
          "name": "bookPrice",
          "type": "uint256"
        },
        {
          "internalType": "string",
          "name": "baseURI",
          "type": "string"
        }
      ],
      "name": "createBook",
      "outputs": [
        {
          "internalType": "address",
          "name": "",
          "type": "address"
        }
      ],
      "stateMutability": "payable",
      "type": "function"
    },
    {
      "inputs": [],
      "name": "fee",
      "outputs": [
        {
          "internalType": "uint256",
          "name": "",
          "type": "uint256"
        }
      ],
      "stateMutability": "view",
      "type": "function"
    },
    {
      "inputs": [],
      "name": "getAllBookAddresses",
      "outputs": [
        {
          "internalType": "address[]",
          "name": "",
          "type": "address[]"
        }
      ],
      "stateMutability": "view",
      "type": "function"
    },
    {
      "inputs": [
        {
          "internalType": "address",
          "name": "bookAddress",
          "type": "address"
        }
      ],
      "name": "getBookIpfsCid",
      "outputs": [
        {
          "internalType": "string",
          "name": "",
          "type": "string"
        }
      ],
      "stateMutability": "view",
      "type": "function"
    },
    {
      "inputs": [
        {
          "internalType": "address",
          "name": "bookAddress",
          "type": "address"
        }
      ],
      "name": "getBookIpfsCoverCid",
      "outputs": [
        {
          "internalType": "string",
          "name": "",
          "type": "string"
        }
      ],
      "stateMutability": "view",
      "type": "function"
    },
    {
      "inputs": [],
      "name": "owner",
      "outputs": [
        {
          "internalType": "address",
          "name": "",
          "type": "address"
        }
      ],
      "stateMutability": "view",
      "type": "function"
    },
    {
      "inputs": [
        {
          "internalType": "address",
          "name": "bookAddress",
          "type": "address"
        }
      ],
      "name": "purchaseBookFromAddress",
      "outputs": [],
      "stateMutability": "payable",
      "type": "function"
    },
    {
      "inputs": [],
      "name": "renounceOwnership",
      "outputs": [],
      "stateMutability": "nonpayable",
      "type": "function"
    },
    {
      "inputs": [
        {
          "internalType": "address",
          "name": "bookAddress",
          "type": "address"
        },
        {
          "internalType": "string",
          "name": "newIpfsCoverCid",
          "type": "string"
        }
      ],
      "name": "setBookCoverIpfsCid",
      "outputs": [],
      "stateMutability": "nonpayable",
      "type": "function"
    },
    {
      "inputs": [
        {
          "internalType": "address",
          "name": "bookAddress",
          "type": "address"
        },
        {
          "internalType": "string",
          "name": "newIpfsCid",
          "type": "string"
        }
      ],
      "name": "setBookIpfsCid",
      "outputs": [],
      "stateMutability": "nonpayable",
      "type": "function"
    },
    {
      "inputs": [
        {
          "internalType": "address",
          "name": "newOwner",
          "type": "address"
        }
      ],
      "name": "transferOwnership",
      "outputs": [],
      "stateMutability": "nonpayable",
      "type": "function"
    },
    {
      "inputs": [],
      "name": "withdraw",
      "outputs": [],
      "stateMutability": "nonpayable",
      "type": "function"
    },
    {
      "stateMutability": "payable",
      "type": "receive"
    }
  ],
  "transactionHash": "0x69fae17ae62ae6cc4e540f28b3a8e105aab0392dd12cad45d3e7d591d43194ee",
  "args": [],
  "numDeployments": 4,
  "solcInputHash": "0c46df71baffe232fe8076e634d69ef6",
  "bytecode": "0x6080604052662386f26fc1000060025534801561001b57600080fd5b506100253361002a565b61007a565b600080546001600160a01b038381166001600160a01b0319831681178455604051919092169283917f8be0079c531659141344cd1fd0a4f28419497f9722a3daafe3b4186f6b6457e09190a35050565b614062806100896000396000f3fe608060405260043610620000f35760003560e01c80638da5cb5b1162000089578063b17bec561162000060578063b17bec561462000288578063ddca3f43146200029f578063f2fde38b14620002c6578063f839228214620002eb57600080fd5b80638da5cb5b1462000216578063a34dfff2146200024a578063a637107c146200026157600080fd5b80633ccfd60b11620000ca5780633ccfd60b1462000189578063715018a614620001a157806374eb1e5f14620001b95780637e70277914620001f157600080fd5b806317409fe0146200010057806318bca11314620001275780632b1b6226146200016457600080fd5b36620000fb57005b600080fd5b3480156200010d57600080fd5b50620001256200011f36600462001a1c565b62000310565b005b3480156200013457600080fd5b506200014c6200014636600462001a70565b62000602565b6040516200015b919062001ae9565b60405180910390f35b3480156200017157600080fd5b506200014c6200018336600462001a70565b620008b5565b3480156200019657600080fd5b506200012562000b35565b348015620001ae57600080fd5b506200012562000bd5565b348015620001c657600080fd5b50620001de620001d836600462001a70565b62000bed565b6040516200015b95949392919062001afe565b348015620001fe57600080fd5b50620001256200021036600462001a1c565b62000dd6565b3480156200022357600080fd5b506000546001600160a01b03165b6040516001600160a01b0390911681526020016200015b565b620001256200025b36600462001a70565b620010b1565b3480156200026e57600080fd5b506200027962001424565b6040516200015b919062001b60565b620002316200029936600462001baf565b62001488565b348015620002ac57600080fd5b50620002b760025481565b6040519081526020016200015b565b348015620002d357600080fd5b5062000125620002e536600462001a70565b620016cd565b348015620002f857600080fd5b50620002316200030a36600462001c4b565b62001749565b6001600160a01b038083166000908152600360209081526040808320815160a0810190925280549094168152600184018054939491939192840191620003569062001c65565b80601f0160208091040260200160405190810160405280929190818152602001828054620003849062001c65565b8015620003d55780601f10620003a957610100808354040283529160200191620003d5565b820191906000526020600020905b815481529060010190602001808311620003b757829003601f168201915b50505050508152602001600282018054620003f09062001c65565b80601f01602080910402602001604051908101604052809291908181526020018280546200041e9062001c65565b80156200046f5780601f1062000443576101008083540402835291602001916200046f565b820191906000526020600020905b8154815290600101906020018083116200045157829003601f168201915b5050505050815260200160038201548152602001600482018054620004949062001c65565b80601f0160208091040260200160405190810160405280929190818152602001828054620004c29062001c65565b8015620005135780601f10620004e75761010080835404028352916020019162000513565b820191906000526020600020905b815481529060010190602001808311620004f557829003601f168201915b5050509190925250508151919250506001600160a01b0316620005535760405162461bcd60e51b81526004016200054a9062001ca1565b60405180910390fd5b604051634e60c53160e11b815283906001600160a01b03821690639cc18a629062000585908690339060040162001cce565b600060405180830381600087803b158015620005a057600080fd5b505af1158015620005b5573d6000803e3d6000fd5b50505050836001600160a01b03167fed12fd7250feebdc6d04588df0094ba2a7cdd1510c4fa4dcb10548b0d388048d84604051620005f4919062001ae9565b60405180910390a250505050565b6001600160a01b038082166000908152600360209081526040808320815160a0810190925280549094168152600184018054606095929384019190620006489062001c65565b80601f0160208091040260200160405190810160405280929190818152602001828054620006769062001c65565b8015620006c75780601f106200069b57610100808354040283529160200191620006c7565b820191906000526020600020905b815481529060010190602001808311620006a957829003601f168201915b50505050508152602001600282018054620006e29062001c65565b80601f0160208091040260200160405190810160405280929190818152602001828054620007109062001c65565b8015620007615780601f10620007355761010080835404028352916020019162000761565b820191906000526020600020905b8154815290600101906020018083116200074357829003601f168201915b5050505050815260200160038201548152602001600482018054620007869062001c65565b80601f0160208091040260200160405190810160405280929190818152602001828054620007b49062001c65565b8015620008055780601f10620007d95761010080835404028352916020019162000805565b820191906000526020600020905b815481529060010190602001808311620007e757829003601f168201915b5050509190925250508151919250506001600160a01b03166200083c5760405162461bcd60e51b81526004016200054a9062001ca1565b60008390506000816001600160a01b031663e7c711f46040518163ffffffff1660e01b8152600401600060405180830381865afa15801562000882573d6000803e3d6000fd5b505050506040513d6000823e601f3d908101601f19168201604052620008ac919081019062001cfa565b95945050505050565b6001600160a01b038082166000908152600360209081526040808320815160a0810190925280549094168152600184018054606095929384019190620008fb9062001c65565b80601f0160208091040260200160405190810160405280929190818152602001828054620009299062001c65565b80156200097a5780601f106200094e576101008083540402835291602001916200097a565b820191906000526020600020905b8154815290600101906020018083116200095c57829003601f168201915b50505050508152602001600282018054620009959062001c65565b80601f0160208091040260200160405190810160405280929190818152602001828054620009c39062001c65565b801562000a145780601f10620009e85761010080835404028352916020019162000a14565b820191906000526020600020905b815481529060010190602001808311620009f657829003601f168201915b505050505081526020016003820154815260200160048201805462000a399062001c65565b80601f016020809104026020016040519081016040528092919081815260200182805462000a679062001c65565b801562000ab85780601f1062000a8c5761010080835404028352916020019162000ab8565b820191906000526020600020905b81548152906001019060200180831162000a9a57829003601f168201915b5050509190925250508151919250506001600160a01b031662000aef5760405162461bcd60e51b81526004016200054a9062001ca1565b60008390506000816001600160a01b031663043bc98c6040518163ffffffff1660e01b8152600401600060405180830381865afa15801562000882573d6000803e3d6000fd5b62000b3f62001774565b604051600090339047908381818185875af1925050503d806000811462000b83576040519150601f19603f3d011682016040523d82523d6000602084013e62000b88565b606091505b505090508062000bd25760405162461bcd60e51b81526020600482015260146024820152732330b4b632b2103a379039b2b7321022ba3432b960611b60448201526064016200054a565b50565b62000bdf62001774565b62000beb6000620017d0565b565b600360205260009081526040902080546001820180546001600160a01b03909216929162000c1b9062001c65565b80601f016020809104026020016040519081016040528092919081815260200182805462000c499062001c65565b801562000c9a5780601f1062000c6e5761010080835404028352916020019162000c9a565b820191906000526020600020905b81548152906001019060200180831162000c7c57829003601f168201915b50505050509080600201805462000cb19062001c65565b80601f016020809104026020016040519081016040528092919081815260200182805462000cdf9062001c65565b801562000d305780601f1062000d045761010080835404028352916020019162000d30565b820191906000526020600020905b81548152906001019060200180831162000d1257829003601f168201915b50505050509080600301549080600401805462000d4d9062001c65565b80601f016020809104026020016040519081016040528092919081815260200182805462000d7b9062001c65565b801562000dcc5780601f1062000da05761010080835404028352916020019162000dcc565b820191906000526020600020905b81548152906001019060200180831162000dae57829003601f168201915b5050505050905085565b6001600160a01b038083166000908152600360209081526040808320815160a081019092528054909416815260018401805493949193919284019162000e1c9062001c65565b80601f016020809104026020016040519081016040528092919081815260200182805462000e4a9062001c65565b801562000e9b5780601f1062000e6f5761010080835404028352916020019162000e9b565b820191906000526020600020905b81548152906001019060200180831162000e7d57829003601f168201915b5050505050815260200160028201805462000eb69062001c65565b80601f016020809104026020016040519081016040528092919081815260200182805462000ee49062001c65565b801562000f355780601f1062000f095761010080835404028352916020019162000f35565b820191906000526020600020905b81548152906001019060200180831162000f1757829003601f168201915b505050505081526020016003820154815260200160048201805462000f5a9062001c65565b80601f016020809104026020016040519081016040528092919081815260200182805462000f889062001c65565b801562000fd95780601f1062000fad5761010080835404028352916020019162000fd9565b820191906000526020600020905b81548152906001019060200180831162000fbb57829003601f168201915b5050509190925250508151919250506001600160a01b0316620010105760405162461bcd60e51b81526004016200054a9062001ca1565b60405163061bf2f360e41b815283906001600160a01b038216906361bf2f309062001042908690339060040162001cce565b600060405180830381600087803b1580156200105d57600080fd5b505af115801562001072573d6000803e3d6000fd5b50505050836001600160a01b03167f63d3981ff48b4ced41b66689cd56a390c7329fab4f6df685758215572a251f0d84604051620005f4919062001ae9565b6001600160a01b038082166000908152600360209081526040808320815160a0810190925280549094168152600184018054939491939192840191620010f79062001c65565b80601f0160208091040260200160405190810160405280929190818152602001828054620011259062001c65565b8015620011765780601f106200114a5761010080835404028352916020019162001176565b820191906000526020600020905b8154815290600101906020018083116200115857829003601f168201915b50505050508152602001600282018054620011919062001c65565b80601f0160208091040260200160405190810160405280929190818152602001828054620011bf9062001c65565b8015620012105780601f10620011e45761010080835404028352916020019162001210565b820191906000526020600020905b815481529060010190602001808311620011f257829003601f168201915b5050505050815260200160038201548152602001600482018054620012359062001c65565b80601f0160208091040260200160405190810160405280929190818152602001828054620012639062001c65565b8015620012b45780601f106200128857610100808354040283529160200191620012b4565b820191906000526020600020905b8154815290600101906020018083116200129657829003601f168201915b5050509190925250508151919250506001600160a01b0316620012eb5760405162461bcd60e51b81526004016200054a9062001ca1565b80606001513414620013325760405162461bcd60e51b815260206004820152600f60248201526e496e636f727265637420707269636560881b60448201526064016200054a565b604051600162f5be1b60e01b0319815233600482015282906000906001600160a01b0383169063ff0a41e590349060240160206040518083038185885af115801562001382573d6000803e3d6000fd5b50505050506040513d601f19601f82011682018060405250810190620013a9919062001d71565b9050836001600160a01b0316336001600160a01b03167f11d98acd9bb3b842882be6ca4685c16bbd2913b62cf728fa039a86cf8ed3c50883604051620013f191815260200190565b60405180910390a36200141e6040518060600160405280602c815260200162004001602c91398262001820565b50505050565b606060018054806020026020016040519081016040528092919081815260200182805480156200147e57602002820191906000526020600020905b81546001600160a01b031681526001909101906020018083116200145f575b5050505050905090565b6000620014c260405180604001604052806014815260200173426f6f6b2773206261736555524920697320257360601b815250836200186d565b662386f26fc100003410156200151b5760405162461bcd60e51b815260206004820152601b60248201527f4661696c656420746f2073656e6420656e6f7567682076616c7565000000000060448201526064016200054a565b60008585858533604051620015309062001920565b6200154095949392919062001d8b565b604051809103906000f0801580156200155d573d6000803e3d6000fd5b506040805160a0810182526001600160a01b0383811680835260208084018c81528486018c9052606085018b9052608085018a905260009283526003909152939020825181546001600160a01b03191692169190911781559151929350918291906001820190620015cf908262001e3e565b5060408201516002820190620015e6908262001e3e565b50606082015160038201556080820151600482019062001607908262001e3e565b50506001805480820182556000919091527fb10e2d527612073b26eecdfd717e6a320cf44b4afac2b0732d9fcbe2b7fa0cf60180546001600160a01b0319166001600160a01b03851617905550604080516060810190915260288082526200167a919062003fd9602083013983620018b6565b816001600160a01b03167f23abe0284bec1278785b44a7d08f106a799ece807dfd632f8301f5520826affb88888888604051620016bb949392919062001f0b565b60405180910390a25095945050505050565b620016d762001774565b6001600160a01b0381166200173e5760405162461bcd60e51b815260206004820152602660248201527f4f776e61626c653a206e6577206f776e657220697320746865207a65726f206160448201526564647265737360d01b60648201526084016200054a565b62000bd281620017d0565b600181815481106200175a57600080fd5b6000918252602090912001546001600160a01b0316905081565b6000546001600160a01b0316331462000beb5760405162461bcd60e51b815260206004820181905260248201527f4f776e61626c653a2063616c6c6572206973206e6f7420746865206f776e657260448201526064016200054a565b600080546001600160a01b038381166001600160a01b0319831681178455604051919092169283917f8be0079c531659141344cd1fd0a4f28419497f9722a3daafe3b4186f6b6457e09190a35050565b6200186982826040516024016200183992919062001f5b565b60408051601f198184030181529190526020810180516001600160e01b0316632d839cb360e21b179052620018fa565b5050565b6200186982826040516024016200188692919062001f7f565b60408051601f198184030181529190526020810180516001600160e01b0316634b5c427760e01b179052620018fa565b620018698282604051602401620018cf92919062001cce565b60408051601f198184030181529190526020810180516001600160e01b031663319af33360e01b1790525b62000bd28160006a636f6e736f6c652e6c6f679050600080835160208501845afa505050565b6120308062001fa983390190565b80356001600160a01b03811681146200194657600080fd5b919050565b634e487b7160e01b600052604160045260246000fd5b604051601f8201601f1916810167ffffffffffffffff811182821017156200198d576200198d6200194b565b604052919050565b600067ffffffffffffffff821115620019b257620019b26200194b565b50601f01601f191660200190565b600082601f830112620019d257600080fd5b8135620019e9620019e38262001995565b62001961565b818152846020838601011115620019ff57600080fd5b816020850160208301376000918101602001919091529392505050565b6000806040838503121562001a3057600080fd5b62001a3b836200192e565b9150602083013567ffffffffffffffff81111562001a5857600080fd5b62001a6685828601620019c0565b9150509250929050565b60006020828403121562001a8357600080fd5b62001a8e826200192e565b9392505050565b60005b8381101562001ab257818101518382015260200162001a98565b50506000910152565b6000815180845262001ad581602086016020860162001a95565b601f01601f19169290920160200192915050565b60208152600062001a8e602083018462001abb565b6001600160a01b038616815260a06020820181905260009062001b249083018762001abb565b828103604084015262001b38818762001abb565b9050846060840152828103608084015262001b54818562001abb565b98975050505050505050565b6020808252825182820181905260009190848201906040850190845b8181101562001ba35783516001600160a01b03168352928401929184019160010162001b7c565b50909695505050505050565b6000806000806080858703121562001bc657600080fd5b843567ffffffffffffffff8082111562001bdf57600080fd5b62001bed88838901620019c0565b9550602087013591508082111562001c0457600080fd5b62001c1288838901620019c0565b945060408701359350606087013591508082111562001c3057600080fd5b5062001c3f87828801620019c0565b91505092959194509250565b60006020828403121562001c5e57600080fd5b5035919050565b600181811c9082168062001c7a57607f821691505b60208210810362001c9b57634e487b7160e01b600052602260045260246000fd5b50919050565b602080825260139082015272109bdbdac8191bd95cc81b9bdd08195e1a5cdd606a1b604082015260600190565b60408152600062001ce3604083018562001abb565b905060018060a01b03831660208301529392505050565b60006020828403121562001d0d57600080fd5b815167ffffffffffffffff81111562001d2557600080fd5b8201601f8101841362001d3757600080fd5b805162001d48620019e38262001995565b81815285602083850101111562001d5e57600080fd5b620008ac82602083016020860162001a95565b60006020828403121562001d8457600080fd5b5051919050565b60a08152600062001da060a083018862001abb565b828103602084015262001db4818862001abb565b9050856040840152828103606084015262001dd0818662001abb565b91505060018060a01b03831660808301529695505050505050565b601f82111562001e3957600081815260208120601f850160051c8101602086101562001e145750805b601f850160051c820191505b8181101562001e355782815560010162001e20565b5050505b505050565b815167ffffffffffffffff81111562001e5b5762001e5b6200194b565b62001e738162001e6c845462001c65565b8462001deb565b602080601f83116001811462001eab576000841562001e925750858301515b600019600386901b1c1916600185901b17855562001e35565b600085815260208120601f198616915b8281101562001edc5788860151825594840194600190910190840162001ebb565b508582101562001efb5787850151600019600388901b60f8161c191681555b5050505050600190811b01905550565b60808152600062001f20608083018762001abb565b828103602084015262001f34818762001abb565b9050846040840152828103606084015262001f50818562001abb565b979650505050505050565b60408152600062001f70604083018562001abb565b90508260208301529392505050565b60408152600062001f94604083018562001abb565b8281036020840152620008ac818562001abb56fe60806040523480156200001157600080fd5b506040516200203038038062002030833981016040819052620000349162000296565b84846000620000448382620003e4565b506001620000538282620003e4565b505050620000706200006a6200009a60201b60201c565b6200009e565b6009839055600a620000838382620003e4565b506200008f81620000f0565b5050505050620004b0565b3390565b600780546001600160a01b038381166001600160a01b0319831681179093556040519116919082907f8be0079c531659141344cd1fd0a4f28419497f9722a3daafe3b4186f6b6457e090600090a35050565b620000fa62000173565b6001600160a01b038116620001655760405162461bcd60e51b815260206004820152602660248201527f4f776e61626c653a206e6577206f776e657220697320746865207a65726f206160448201526564647265737360d01b60648201526084015b60405180910390fd5b62000170816200009e565b50565b6007546001600160a01b03163314620001cf5760405162461bcd60e51b815260206004820181905260248201527f4f776e61626c653a2063616c6c6572206973206e6f7420746865206f776e657260448201526064016200015c565b565b634e487b7160e01b600052604160045260246000fd5b600082601f830112620001f957600080fd5b81516001600160401b0380821115620002165762000216620001d1565b604051601f8301601f19908116603f01168101908282118183101715620002415762000241620001d1565b816040528381526020925086838588010111156200025e57600080fd5b600091505b8382101562000282578582018301518183018401529082019062000263565b600093810190920192909252949350505050565b600080600080600060a08688031215620002af57600080fd5b85516001600160401b0380821115620002c757600080fd5b620002d589838a01620001e7565b96506020880151915080821115620002ec57600080fd5b620002fa89838a01620001e7565b95506040880151945060608801519150808211156200031857600080fd5b506200032788828901620001e7565b608088015190935090506001600160a01b03811681146200034757600080fd5b809150509295509295909350565b600181811c908216806200036a57607f821691505b6020821081036200038b57634e487b7160e01b600052602260045260246000fd5b50919050565b601f821115620003df57600081815260208120601f850160051c81016020861015620003ba5750805b601f850160051c820191505b81811015620003db57828155600101620003c6565b5050505b505050565b81516001600160401b03811115620004005762000400620001d1565b620004188162000411845462000355565b8462000391565b602080601f831160018114620004505760008415620004375750858301515b600019600386901b1c1916600185901b178555620003db565b600085815260208120601f198616915b82811015620004815788860151825594840194600190910190840162000460565b5085821015620004a05787850151600019600388901b60f8161c191681555b5050505050600190811b01905550565b611b7080620004c06000396000f3fe6080604052600436106101405760003560e01c806370a08231116100b6578063b88d4fde1161006f578063b88d4fde1461036c578063c87b56dd1461038c578063e7c711f4146103ac578063e985e9c5146103c1578063f2fde38b1461040a578063ff0a41e51461042a57600080fd5b806370a08231146102c4578063715018a6146102e45780638da5cb5b146102f957806395d89b41146103175780639cc18a621461032c578063a22cb4651461034c57600080fd5b806323b872dd1161010857806323b872dd1461020b5780633ccfd60b1461022b57806342842e0e1461024057806361bf2f30146102605780636352211e146102805780636e9164f4146102a057600080fd5b806301ffc9a714610145578063043bc98c1461017a57806306fdde031461019c578063081812fc146101b1578063095ea7b3146101e9575b600080fd5b34801561015157600080fd5b5061016561016036600461157f565b61043d565b60405190151581526020015b60405180910390f35b34801561018657600080fd5b5061018f610468565b60405161017191906115ec565b3480156101a857600080fd5b5061018f6104fa565b3480156101bd57600080fd5b506101d16101cc3660046115ff565b610509565b6040516001600160a01b039091168152602001610171565b3480156101f557600080fd5b50610209610204366004611634565b610530565b005b34801561021757600080fd5b5061020961022636600461165e565b61064a565b34801561023757600080fd5b5061020961067b565b34801561024c57600080fd5b5061020961025b36600461165e565b610715565b34801561026c57600080fd5b5061020961027b366004611726565b610730565b34801561028c57600080fd5b506101d161029b3660046115ff565b610803565b3480156102ac57600080fd5b506102b660095481565b604051908152602001610171565b3480156102d057600080fd5b506102b66102df366004611788565b610863565b3480156102f057600080fd5b506102096108e9565b34801561030557600080fd5b506007546001600160a01b03166101d1565b34801561032357600080fd5b5061018f6108fd565b34801561033857600080fd5b50610209610347366004611726565b61090c565b34801561035857600080fd5b506102096103673660046117a3565b6109ca565b34801561037857600080fd5b506102096103873660046117df565b6109d9565b34801561039857600080fd5b5061018f6103a73660046115ff565b610a11565b3480156103b857600080fd5b5061018f610b14565b3480156103cd57600080fd5b506101656103dc36600461185b565b6001600160a01b03918216600090815260056020908152604080832093909416825291909152205460ff1690565b34801561041657600080fd5b50610209610425366004611788565b610b23565b6102b6610438366004611788565b610b99565b60006001600160e01b03198216632483248360e11b1480610462575061046282610c03565b92915050565b6060600c805461047790611885565b80601f01602080910402602001604051908101604052809291908181526020018280546104a390611885565b80156104f05780601f106104c5576101008083540402835291602001916104f0565b820191906000526020600020905b8154815290600101906020018083116104d357829003601f168201915b5050505050905090565b60606000805461047790611885565b600061051482610c53565b506000908152600460205260409020546001600160a01b031690565b600061053b82610803565b9050806001600160a01b0316836001600160a01b0316036105ad5760405162461bcd60e51b815260206004820152602160248201527f4552433732313a20617070726f76616c20746f2063757272656e74206f776e656044820152603960f91b60648201526084015b60405180910390fd5b336001600160a01b03821614806105c957506105c981336103dc565b61063b5760405162461bcd60e51b815260206004820152603d60248201527f4552433732313a20617070726f76652063616c6c6572206973206e6f7420746f60448201527f6b656e206f776e6572206f7220617070726f76656420666f7220616c6c00000060648201526084016105a4565b6106458383610cb2565b505050565b6106543382610d20565b6106705760405162461bcd60e51b81526004016105a4906118bf565b610645838383610d9e565b610683610f02565b604051600090339047908381818185875af1925050503d80600081146106c5576040519150601f19603f3d011682016040523d82523d6000602084013e6106ca565b606091505b50509050806107125760405162461bcd60e51b81526020600482015260146024820152732330b4b632b2103a379039b2b7321022ba3432b960611b60448201526064016105a4565b50565b610645838383604051806020016040528060008152506109d9565b6007546001600160a01b0382811691161461077d5760405162461bcd60e51b815260206004820152600d60248201526c2737ba103a34329037bbb732b960991b60448201526064016105a4565b600d54610100900460ff16156107e35760405162461bcd60e51b815260206004820152602560248201527f626f6f6b49706673436f7665724369642068617320616c7265616479206265656044820152641b881cd95d60da1b60648201526084016105a4565b600c6107ef838261195a565b5050600d805461ff00191661010017905550565b6000818152600260205260408120546001600160a01b0316806104625760405162461bcd60e51b8152602060048201526018602482015277115490cdcc8c4e881a5b9d985b1a59081d1bdad95b88125160421b60448201526064016105a4565b60006001600160a01b0382166108cd5760405162461bcd60e51b815260206004820152602960248201527f4552433732313a2061646472657373207a65726f206973206e6f7420612076616044820152683634b21037bbb732b960b91b60648201526084016105a4565b506001600160a01b031660009081526003602052604090205490565b6108f1610f02565b6108fb6000610f5c565b565b60606001805461047790611885565b6007546001600160a01b038281169116146109595760405162461bcd60e51b815260206004820152600d60248201526c2737ba103a34329037bbb732b960991b60448201526064016105a4565b600d5460ff16156109ac5760405162461bcd60e51b815260206004820181905260248201527f626f6f6b497066734369642068617320616c7265616479206265656e2073657460448201526064016105a4565b600b6109b8838261195a565b5050600d805460ff1916600117905550565b6109d5338383610fae565b5050565b6109e33383610d20565b6109ff5760405162461bcd60e51b81526004016105a4906118bf565b610a0b8484848461107c565b50505050565b6060610a1c82610c53565b60008281526006602052604081208054610a3590611885565b80601f0160208091040260200160405190810160405280929190818152602001828054610a6190611885565b8015610aae5780601f10610a8357610100808354040283529160200191610aae565b820191906000526020600020905b815481529060010190602001808311610a9157829003601f168201915b505050505090506000610abf6110af565b90508051600003610ad1575092915050565b815115610b03578082604051602001610aeb929190611a1a565b60405160208183030381529060405292505050919050565b610b0c846110be565b949350505050565b6060600b805461047790611885565b610b2b610f02565b6001600160a01b038116610b905760405162461bcd60e51b815260206004820152602660248201527f4f776e61626c653a206e6577206f776e657220697320746865207a65726f206160448201526564647265737360d01b60648201526084016105a4565b61071281610f5c565b60006009543414610bde5760405162461bcd60e51b815260206004820152600f60248201526e496e636f727265637420707269636560881b60448201526064016105a4565b6000610be960085490565b9050610bf9600880546001019055565b6104628382611125565b60006001600160e01b031982166380ac58cd60e01b1480610c3457506001600160e01b03198216635b5e139f60e01b145b8061046257506301ffc9a760e01b6001600160e01b0319831614610462565b6000818152600260205260409020546001600160a01b03166107125760405162461bcd60e51b8152602060048201526018602482015277115490cdcc8c4e881a5b9d985b1a59081d1bdad95b88125160421b60448201526064016105a4565b600081815260046020526040902080546001600160a01b0319166001600160a01b0384169081179091558190610ce782610803565b6001600160a01b03167f8c5be1e5ebec7d5bd14f71427d1e84f3dd0314c0f7b2291e5b200ac8c7c3b92560405160405180910390a45050565b600080610d2c83610803565b9050806001600160a01b0316846001600160a01b03161480610d7357506001600160a01b0380821660009081526005602090815260408083209388168352929052205460ff165b80610b0c5750836001600160a01b0316610d8c84610509565b6001600160a01b031614949350505050565b826001600160a01b0316610db182610803565b6001600160a01b031614610dd75760405162461bcd60e51b81526004016105a490611a49565b6001600160a01b038216610e395760405162461bcd60e51b8152602060048201526024808201527f4552433732313a207472616e7366657220746f20746865207a65726f206164646044820152637265737360e01b60648201526084016105a4565b826001600160a01b0316610e4c82610803565b6001600160a01b031614610e725760405162461bcd60e51b81526004016105a490611a49565b600081815260046020908152604080832080546001600160a01b03199081169091556001600160a01b0387811680865260038552838620805460001901905590871680865283862080546001019055868652600290945282852080549092168417909155905184937fddf252ad1be2c89b69c2b068fc378daa952ba7f163c4a11628f55a4df523b3ef91a4505050565b6007546001600160a01b031633146108fb5760405162461bcd60e51b815260206004820181905260248201527f4f776e61626c653a2063616c6c6572206973206e6f7420746865206f776e657260448201526064016105a4565b600780546001600160a01b038381166001600160a01b0319831681179093556040519116919082907f8be0079c531659141344cd1fd0a4f28419497f9722a3daafe3b4186f6b6457e090600090a35050565b816001600160a01b0316836001600160a01b03160361100f5760405162461bcd60e51b815260206004820152601960248201527f4552433732313a20617070726f766520746f2063616c6c65720000000000000060448201526064016105a4565b6001600160a01b03838116600081815260056020908152604080832094871680845294825291829020805460ff191686151590811790915591519182527f17307eab39ab6107e8899845ad3d59bd9653f200f220920489ca2b5937696c31910160405180910390a3505050565b611087848484610d9e565b6110938484848461113f565b610a0b5760405162461bcd60e51b81526004016105a490611a8e565b6060600a805461047790611885565b60606110c982610c53565b60006110d36110af565b905060008151116110f3576040518060200160405280600081525061111e565b806110fd84611240565b60405160200161110e929190611a1a565b6040516020818303038152906040525b9392505050565b6109d58282604051806020016040528060008152506112d3565b60006001600160a01b0384163b1561123557604051630a85bd0160e11b81526001600160a01b0385169063150b7a0290611183903390899088908890600401611ae0565b6020604051808303816000875af19250505080156111be575060408051601f3d908101601f191682019092526111bb91810190611b1d565b60015b61121b573d8080156111ec576040519150601f19603f3d011682016040523d82523d6000602084013e6111f1565b606091505b5080516000036112135760405162461bcd60e51b81526004016105a490611a8e565b805181602001fd5b6001600160e01b031916630a85bd0160e11b149050610b0c565b506001949350505050565b6060600061124d83611306565b600101905060008167ffffffffffffffff81111561126d5761126d61169a565b6040519080825280601f01601f191660200182016040528015611297576020820181803683370190505b5090508181016020015b600019016f181899199a1a9b1b9c1cb0b131b232b360811b600a86061a8153600a85049450846112a157509392505050565b6112dd83836113de565b6112ea600084848461113f565b6106455760405162461bcd60e51b81526004016105a490611a8e565b60008072184f03e93ff9f4daa797ed6e38ed64bf6a1f0160401b83106113455772184f03e93ff9f4daa797ed6e38ed64bf6a1f0160401b830492506040015b6d04ee2d6d415b85acef81000000008310611371576d04ee2d6d415b85acef8100000000830492506020015b662386f26fc10000831061138f57662386f26fc10000830492506010015b6305f5e10083106113a7576305f5e100830492506008015b61271083106113bb57612710830492506004015b606483106113cd576064830492506002015b600a83106104625760010192915050565b6001600160a01b0382166114345760405162461bcd60e51b815260206004820181905260248201527f4552433732313a206d696e7420746f20746865207a65726f206164647265737360448201526064016105a4565b6000818152600260205260409020546001600160a01b0316156114995760405162461bcd60e51b815260206004820152601c60248201527f4552433732313a20746f6b656e20616c7265616479206d696e7465640000000060448201526064016105a4565b6000818152600260205260409020546001600160a01b0316156114fe5760405162461bcd60e51b815260206004820152601c60248201527f4552433732313a20746f6b656e20616c7265616479206d696e7465640000000060448201526064016105a4565b6001600160a01b038216600081815260036020908152604080832080546001019055848352600290915280822080546001600160a01b0319168417905551839291907fddf252ad1be2c89b69c2b068fc378daa952ba7f163c4a11628f55a4df523b3ef908290a45050565b6001600160e01b03198116811461071257600080fd5b60006020828403121561159157600080fd5b813561111e81611569565b60005b838110156115b757818101518382015260200161159f565b50506000910152565b600081518084526115d881602086016020860161159c565b601f01601f19169290920160200192915050565b60208152600061111e60208301846115c0565b60006020828403121561161157600080fd5b5035919050565b80356001600160a01b038116811461162f57600080fd5b919050565b6000806040838503121561164757600080fd5b61165083611618565b946020939093013593505050565b60008060006060848603121561167357600080fd5b61167c84611618565b925061168a60208501611618565b9150604084013590509250925092565b634e487b7160e01b600052604160045260246000fd5b600067ffffffffffffffff808411156116cb576116cb61169a565b604051601f8501601f19908116603f011681019082821181831017156116f3576116f361169a565b8160405280935085815286868601111561170c57600080fd5b858560208301376000602087830101525050509392505050565b6000806040838503121561173957600080fd5b823567ffffffffffffffff81111561175057600080fd5b8301601f8101851361176157600080fd5b611770858235602084016116b0565b92505061177f60208401611618565b90509250929050565b60006020828403121561179a57600080fd5b61111e82611618565b600080604083850312156117b657600080fd5b6117bf83611618565b9150602083013580151581146117d457600080fd5b809150509250929050565b600080600080608085870312156117f557600080fd5b6117fe85611618565b935061180c60208601611618565b925060408501359150606085013567ffffffffffffffff81111561182f57600080fd5b8501601f8101871361184057600080fd5b61184f878235602084016116b0565b91505092959194509250565b6000806040838503121561186e57600080fd5b61187783611618565b915061177f60208401611618565b600181811c9082168061189957607f821691505b6020821081036118b957634e487b7160e01b600052602260045260246000fd5b50919050565b6020808252602d908201527f4552433732313a2063616c6c6572206973206e6f7420746f6b656e206f776e6560408201526c1c881bdc88185c1c1c9bdd9959609a1b606082015260800190565b601f82111561064557600081815260208120601f850160051c810160208610156119335750805b601f850160051c820191505b818110156119525782815560010161193f565b505050505050565b815167ffffffffffffffff8111156119745761197461169a565b611988816119828454611885565b8461190c565b602080601f8311600181146119bd57600084156119a55750858301515b600019600386901b1c1916600185901b178555611952565b600085815260208120601f198616915b828110156119ec578886015182559484019460019091019084016119cd565b5085821015611a0a5787850151600019600388901b60f8161c191681555b5050505050600190811b01905550565b60008351611a2c81846020880161159c565b835190830190611a4081836020880161159c565b01949350505050565b60208082526025908201527f4552433732313a207472616e736665722066726f6d20696e636f72726563742060408201526437bbb732b960d91b606082015260800190565b60208082526032908201527f4552433732313a207472616e7366657220746f206e6f6e20455243373231526560408201527131b2b4bb32b91034b6b83632b6b2b73a32b960711b606082015260800190565b6001600160a01b0385811682528416602082015260408101839052608060608201819052600090611b13908301846115c0565b9695505050505050565b600060208284031215611b2f57600080fd5b815161111e8161156956fea26469706673582212200611eb401e5900edc6808936d2ee5369b164f54c9ae9f3e9c8d9b6553f63065c64736f6c63430008140033426f6f6b20637265617465642073756363657366756c6c7920776974682061646472657373202573426f6f6b207769746820746f6b656e20494420257320707572636861736564207375636365737366756c6c79a2646970667358221220b4557aef85c388fde89ee5086b5117b99d614dc721613f365d1b74050ac21faf64736f6c63430008140033",
  "devdoc": {
    "kind": "dev",
    "methods": {
      "owner()": {
        "details": "Returns the address of the current owner."
      },
      "renounceOwnership()": {
        "details": "Leaves the contract without owner. It will not be possible to call `onlyOwner` functions. Can only be called by the current owner. NOTE: Renouncing ownership will leave the contract without an owner, thereby disabling any functionality that is only available to the owner."
      },
      "transferOwnership(address)": {
        "details": "Transfers ownership of the contract to a new account (`newOwner`). Can only be called by the current owner."
      }
    },
    "version": 1
  },
  "userdoc": {
    "kind": "user",
    "methods": {
      "withdraw()": {
        "notice": "Function that allows the owner to withdraw all the Ether in the contract The function can only be called by the owner of the contract as defined by the isOwner modifier"
      }
    },
    "version": 1
  },
  "storageLayout": {
    "storage": [
      {
        "astId": 7,
        "contract": "contracts/PublishingFactoryNative.sol:PublishingFactoryNative",
        "label": "_owner",
        "offset": 0,
        "slot": "0",
        "type": "t_address"
      },
      {
        "astId": 3353,
        "contract": "contracts/PublishingFactoryNative.sol:PublishingFactoryNative",
        "label": "bookAddresses",
        "offset": 0,
        "slot": "1",
        "type": "t_array(t_address)dyn_storage"
      },
      {
        "astId": 3356,
        "contract": "contracts/PublishingFactoryNative.sol:PublishingFactoryNative",
        "label": "fee",
        "offset": 0,
        "slot": "2",
        "type": "t_uint256"
      },
      {
        "astId": 3361,
        "contract": "contracts/PublishingFactoryNative.sol:PublishingFactoryNative",
        "label": "books",
        "offset": 0,
        "slot": "3",
        "type": "t_mapping(t_address,t_struct(BookInfo)3350_storage)"
      }
    ],
    "types": {
      "t_address": {
        "encoding": "inplace",
        "label": "address",
        "numberOfBytes": "20"
      },
      "t_array(t_address)dyn_storage": {
        "base": "t_address",
        "encoding": "dynamic_array",
        "label": "address[]",
        "numberOfBytes": "32"
      },
      "t_mapping(t_address,t_struct(BookInfo)3350_storage)": {
        "encoding": "mapping",
        "key": "t_address",
        "label": "mapping(address => struct PublishingFactoryNative.BookInfo)",
        "numberOfBytes": "32",
        "value": "t_struct(BookInfo)3350_storage"
      },
      "t_string_storage": {
        "encoding": "bytes",
        "label": "string",
        "numberOfBytes": "32"
      },
      "t_struct(BookInfo)3350_storage": {
        "encoding": "inplace",
        "label": "struct PublishingFactoryNative.BookInfo",
        "members": [
          {
            "astId": 3341,
            "contract": "contracts/PublishingFactoryNative.sol:PublishingFactoryNative",
            "label": "bookAddress",
            "offset": 0,
            "slot": "0",
            "type": "t_address"
          },
          {
            "astId": 3343,
            "contract": "contracts/PublishingFactoryNative.sol:PublishingFactoryNative",
            "label": "name",
            "offset": 0,
            "slot": "1",
            "type": "t_string_storage"
          },
          {
            "astId": 3345,
            "contract": "contracts/PublishingFactoryNative.sol:PublishingFactoryNative",
            "label": "symbol",
            "offset": 0,
            "slot": "2",
            "type": "t_string_storage"
          },
          {
            "astId": 3347,
            "contract": "contracts/PublishingFactoryNative.sol:PublishingFactoryNative",
            "label": "price",
            "offset": 0,
            "slot": "3",
            "type": "t_uint256"
          },
          {
            "astId": 3349,
            "contract": "contracts/PublishingFactoryNative.sol:PublishingFactoryNative",
            "label": "baseURI",
            "offset": 0,
            "slot": "4",
            "type": "t_string_storage"
          }
        ],
        "numberOfBytes": "160"
      },
      "t_uint256": {
        "encoding": "inplace",
        "label": "uint256",
        "numberOfBytes": "32"
      }
    }
  }
}